:020000040800F2
:10000000B058002059020008E536000819340008ED
:10001000E13600087D0500080D41000800000000E1
:10002000000000000000000000000000D1370008C0
:10003000C10500080000000061370008B138000861
:1000400073020008730200087302000873020008BC
:1000500073020008730200087302000873020008AC
:10006000730200087302000873020008730200089C
:10007000730200087302000873020008730200088C
:10008000730200087302000873020008730200087C
:10009000810500089105000873020008730200083A
:1000A000730200087302000873020008730200085C
:1000B000730200087302000873020008730200084C
:1000C000730200087302000873020008730200083C
:1000D00073020008CD400008DD400008ED40000834
:1000E000730200087302000873020008730200081C
:1000F000730200087302000873020008730200080C
:1001000073020008730200087302000873020008FB
:100110007302000873020008A13900087302000886
:1001200073020008730200087302000873020008DB
:1001300073020008730200087302000873020008CB
:10014000A1050008B1050008730200087302000849
:10015000730200087302000873020008FD400008E3
:10016000730200087302000873020008730200089B
:100170007302000873020008730200080000000008
:10018000730200087302000800F002F800F054F84F
:1001900014A696E8000CB244B344DA4501D100F04D
:1001A0004BF8BAE80F000FA696E83000A5EB04055F
:1001B00004EB0607AAEB0704A7F101074FEA1515A0
:1001C0004FEA3414A4F10104AC4201D300F034F836
:1001D00013F0010F18BFFB1A43F0010300F001F800
:1001E000DBE71847B07F0000D07F0000103A24BF43
:1001F00078C878C1FAD8520724BF30C830C144BF8C
:1002000004680C6070470000704700000023002461
:1002100000250026103A28BF78C1FBD8520728BF16
:1002200030C148BF0B6070471FB507F03BFF00F0BF
:1002300023F91FBD10B510BD00F066F91146FFF798
:10024000F3FF05F0E5F800F084F903B4FFF7F2FFDF
:1002500003BC00F08BF900000948804709480047BB
:10026000FEE7FEE7FEE7FEE7FEE7FEE7FEE7FEE766
:10027000FEE7FEE704480549054A064B70470000C3
:100280008D39000889010008B0520020B0580020C4
:10029000B0540020B054002053EA020C00F06980F2
:1002A0002DE9F04B4FF00006002B1FBFB3FA83F58A
:1002B00003FA05F424FA05F65E4012BF1643B2FABB
:1002C00082F502FA05F4C5F120051EBF22FA05FCED
:1002D00044EA0C04203556EA044C4FEA144418BF93
:1002E000641C4FF000084FF00009904271EB030CC2
:1002F00039D3002919BFB1FA81F701FA07F6B0FA2C
:1003000080F700FA07F6C7F120071EBF20FA07FCA6
:1003100046EA0C062037B6FBF4FCA7EB0507103FB6
:1003200007F01F0BCBF120062CFA06F60CFA0BFB9C
:1003300044BFB3460026202FA4BF5E464FF0000BFB
:100340005BEA060C08BF4FF0010B19EB0B0948EBF9
:100350000608ABFB027C06FB02CC0BFB03CCC01BEC
:1003600071EB0C01C1E70B46024641464846BDE829
:10037000F08B13B5084318BF4FF0FF300146AFF3C1
:100380000080BDE81C407047032A40F2308010F026
:10039000030C00F0158011F8013BBCF1020F624420
:1003A00098BF11F801CB00F8013B38BF11F8013BB1
:1003B000A2F1040298BF00F801CB38BF00F8013B5E
:1003C00011F0030300F06E80083AC0F0088051F885
:1003D000043B083A51F804CBA0E80810F5E7121DD9
:1003E0005CBF51F8043B40F8043BAFF30080D207F8
:1003F00024BF11F8013B11F801CB48BF11F8012BC4
:1004000024BF00F8013B00F801CB48BF00F8012BE6
:10041000704702F0FF0343EA032242EA024200F07F
:1004200002B84FF0000200B51346944696462039B4
:1004300022BFA0E80C50A0E80C50B1F12001BFF49D
:10044000F7AF090728BFA0E80C5048BF0CC05DF803
:1004500004EB890028BF40F8042B08BF704748BF51
:1004600020F8022B11F0804F18BF00F8012B7047C5
:10047000704770477047000008487CB5784400908A
:1004800007487844009C0546019004E02046016836
:1004900008448047241DAC42F8D17CBD347D000067
:1004A000367D000010B5203AC0F00B80B1E818503E
:1004B000A0E81850B1E81850A0E81850203ABFF44E
:1004C000F5AF5FEA027C24BFB1E81850A0E81850ED
:1004D00044BF18C918C0BDE810405FEA827C24BF41
:1004E00051F8043B40F8043B08BF7047D20728BFCF
:1004F00031F8023B48BF11F8012B28BF20F8023B1E
:1005000048BF00F8012B7047754600F02BF8AE4647
:1005100005006946534620F00700854618B020B50F
:10052000FFF7A8FEBDE820404FF000064FF000079F
:100530004FF000084FF0000BAC46ACE8C009ACE847
:10054000C009ACE8C009ACE8C00921F007018D463C
:10055000704710B50446AFF300802046BDE8104058
:10056000FFF773BE004870471000002001491820B3
:10057000ABBEFEE72600020070470000FFE7FEE783
:1005800080B540F26460C2F2000000F0D5FA80BD90
:1005900080B540F26460C2F2000000F0CDFA80BD88
:1005A00080B540F28C60C2F2000000F0C5FA80BD58
:1005B00080B540F28C60C2F2000000F0BDFA80BD50
:1005C0007047000072B6FFE7FEE7000084B00290BB
:1005D0000191029890F820008DF803009DF8030027
:1005E000012805D0FFE79DF8030002280AD1FFE7A4
:1005F000019A0298016848691043486100208DF80B
:100600000F0008E00299486A40F480204862012007
:100610008DF80F00FFE79DF80F0004B07047000051
:1006200088B00690059104920393069890F82000F4
:100630008DF807000698006880680090059880682B
:1006400008B9FFE700E0FFE79DF80700012806D0A2
:10065000FFE79DF80700022840F08080FFE79DF843
:100660000300400700280CD4FFE79DF803000007B3
:10067000002806D4FFE79DF80300C006002864D5D3
:10068000FFE70098C0F301600290029901208840C2
:10069000039908600598806868B9FFE705980168C4
:1006A000C06840EA415006990968029A01EB0211BC
:1006B000C1F880010EE005994A688868C96840EA77
:1006C000C200084306990968029A01EB0211C1F8B9
:1006D0008001FFE70598006906990968029A01EB15
:1006E0000211C1F884010598007D01280CD1FFE7B3
:1006F00006980068029900EB0111D1F8840140F4DA
:100700008070C1F88401FFE7049840680699096881
:10071000029A01EB0211C1F88C0104980068069955
:100720000968029A01EB0211C1F888010698006875
:10073000029900EB0111D1F8800140F00100C1F8ED
:10074000800100208DF81F0011E00699486A40F4EE
:100750000010486201208DF81F0008E00699486AE1
:1007600040F48020486201208DF81F00FFE79DF8CB
:100770001F0008B07047000086B0049003910498F1
:1007800000680190049890F820008DF803009DF80F
:100790000300012806D0FFE79DF80300022840F07F
:1007A000B080FFE746F20040C4F2000001900199DA
:1007B000D1F8000240F00100C1F800020199D1F81F
:1007C000000220F47C50C1F800020398426A0199AB
:1007D000D1F8000240EA0220C1F800020398406903
:1007E00000F01F01012088400290029A0199D1F87F
:1007F0001C029043C1F81C020398C069F0B9FFE7DE
:10080000029A0199D1F80C029043C1F80C02039AA4
:100810009088D168526940EA0140019901EBC20118
:10082000C1F84002039A10889168526940EA014079
:10083000019901EBC201C1F84402FFE70398C069C6
:1008400001281ED1FFE7029A0199D1F80C0210434A
:10085000C1F80C02039A90881168526940EA01407D
:10086000019901EBC201C1F84002039A9089916895
:10087000526940EA0140019901EBC201C1F844020A
:10088000FFE70398806940B9FFE7029A0199D1F820
:1008900004029043C1F8040207E0029A0199D1F8DA
:1008A00004021043C1F80402FFE70398006940B94D
:1008B000FFE7029A0199D1F814029043C1F814029B
:1008C00007E0029A0199D1F814021043C1F814020A
:1008D000FFE70398006A012808D1FFE7029A01990F
:1008E000D1F81C021043C1F81C02FFE70199D1F8AE
:1008F000000220F00100C1F8000200208DF817006E
:1009000008E00499486A40F48020486201208DF88C
:100910001700FFE79DF8170006B0704781B0009000
:1009200001B0704786B0049003910292019304983D
:1009300090F820008DF803009DF80300012806D0F0
:10094000FFE79DF80300022840F0E880FFE70398E6
:1009500080B9FFE704980068C068800748B9FFE7DE
:100960000499486A40F40010486201208DF817008D
:10097000DDE00FE0049800680069800748B9FFE7F0
:100980000499486A40F40010486201208DF817006D
:10099000CDE0FFE704980068039900EB0110D0F860
:1009A000B00100F00400029988600298806858B98C
:1009B000FFE704980068039900EB0110D0F8B0013C
:1009C000400D029908600AE004980068039900EB62
:1009D0000110D0F8B001C00802994860FFE7049800
:1009E0000068039900EB0110D0F8B00100F002009C
:1009F0000299C86004980068039900EB0110D0F8D0
:100A0000B40100F00F00082804D3FFE70299082082
:100A100008610BE004980068039900EB0110D0F81E
:100A2000B40100F00F0002990861FFE70498006824
:100A3000039900EB0110D0F8B40180B2000A0299CA
:100A4000886104980068039900EB0110D0F8B401A4
:100A5000000C0299486104980068039900EB0110AA
:100A6000D0F8B8010199087004980068039900EB68
:100A70000110D0F8B801000A019948700498006884
:100A8000039900EB0110D0F8B801000C01998870AF
:100A900004980068039900EB0110D0F8B801000E2B
:100AA0000199C87004980068039900EB0110D0F810
:100AB000BC010199087104980068039900EB0110CA
:100AC000D0F8BC01000A01994871049800680399A4
:100AD00000EB0110D0F8BC01000C0199887104985A
:100AE0000068039900EB0110D0F8BC01000E0199D9
:100AF000C871039838B9FFE704980168C86840F0E6
:100B00002000C86006E004980168086940F02000F1
:100B10000861FFE700208DF8170008E00499486A93
:100B200040F48020486201208DF81700FFE79DF80F
:100B3000170006B07047000080B58AB00990002009
:100B40000890099800684069079009980068406813
:100B50000690099800688068059009980068C06848
:100B600004900998006800690390099800688069FA
:100B700002909DF81C00C007002800F09480FFE759
:100B80009DF81400C00758B3FFE7099801680120D9
:100B900088609DF814008007002804D5FFE70998B5
:100BA00000F080FC1BE09DF814004007002805D5EC
:100BB000FFE7089840F4006008900FE09DF81400EB
:100BC0000007002805D5FFE7089840F480500890FA
:100BD00003E0099800F062FCFFE7FFE7FFE7FFE7AB
:100BE0009DF81500C00760B3FFE7099801684FF44E
:100BF000807088609DF815008007002804D5FFE705
:100C0000099800F057FC1BE09DF8150040070028EC
:100C100005D5FFE7089840F4005008900FE09DF8D4
:100C200015000007002805D5FFE7089840F480402C
:100C3000089003E0099800F039FCFFE7FFE7FFE7C1
:100C4000FFE79DF81600C00760B3FFE70998016849
:100C50004FF4803088609DF816008007002804D586
:100C6000FFE7099800F02EFC1BE09DF816004007F6
:100C7000002805D5FFE7089840F4004008900FE0F1
:100C80009DF816000007002805D5FFE7089840F4F6
:100C90008030089003E0099800F010FCFFE7FFE7C0
:100CA000FFE7FFE7FFE79DF81C000007002810D5CD
:100CB000FFE79DF81000C006002809D5FFE7089857
:100CC00040F400700890099801681020C860FFE7A0
:100CD000FFE79DF81C00400700280FD5FFE79DF8AF
:100CE00010000007002808D5FFE7099801680820D0
:100CF000C860099800F0E2FAFFE7FFE79DF81C00E2
:100D0000800700280BD5FFE709980068C0688007B6
:100D100020B1FFE7099800F0D5FAFFE7FFE79DF85B
:100D20001C004006002810D5FFE79DF80C00C00607
:100D3000002809D5FFE7089840F4806008900998DA
:100D4000016810200861FFE7FFE79DF81C0080069E
:100D500000280FD5FFE79DF80C000007002808D5F4
:100D6000FFE70998016808200861099800F044FB32
:100D7000FFE7FFE79DF81C00C00600280BD5FFE742
:100D8000099800680069800720B1FFE7099800F022
:100D900037FBFFE7FFE79DF81E00800700280FD50F
:100DA000FFE79DF81800C006002808D5FFE709985E
:100DB000016810204860099800F026FBFFE7FFE774
:100DC0009DF81E00C00778B1FFE79DF818000007E6
:100DD000002808D5FFE709980168082048600998AD
:100DE00000F074FBFFE7FFE79DF81D0000060028F8
:100DF00040F18D80FFE79DF818004007002840F182
:100E00008180FFE79DF81D00C00750B1FFE79DF806
:100E10000800C00728B1FFE7089840F001000890DB
:100E2000FFE79DF81D00800700280BD5FFE79DF820
:100E300008008007002805D5FFE7089840F0020069
:100E40000890FFE79DF81D00400700280BD5FFE73D
:100E50009DF808004007002805D5FFE7089840F0F6
:100E600004000890FFE79DF81D000007002848D502
:100E7000FFE79DF8080010F0700F42D0FFE70298DE
:100E800000F0700001460191102814D0FFE701988E
:100E9000202815D0FFE70198302816D0FFE70198E9
:100EA000402817D0FFE70198502818D0FFE7019895
:100EB000602819D01DE0089840F00800089019E05B
:100EC000089840F01000089014E0089840F02000C6
:100ED00008900FE0089840F0400008900AE0089859
:100EE00040F08000089005E0089840F48070089079
:100EF00000E0FFE709980168886920F070008861C8
:100F0000FFE7FFE70998016804204860FFE70898B9
:100F100048B1FFE7089A0999486A1043486209985E
:100F2000FFF7FCFCFFE70AB080BD000080B584B08D
:100F30000290029820B9FFE701208DF80F00E0E051
:100F4000029890F8200020B9FFE7029800F0DEF840
:100F5000FFE702980168086840F00100086000F0AF
:100F60002DFD0190FFE7029800684068C007A8B90E
:100F7000FFE700F023FD0199401A0B280DD3FFE78E
:100F80000299486A40F4003048620299052081F8CD
:100F9000200001208DF80F00B3E0E4E7029801681B
:100FA000086820F00200086000F008FD0190FFE7EB
:100FB0000298006840688007002815D5FFE700F018
:100FC000FDFC0199401A0B280DD3FFE70299486AEE
:100FD00040F4003048620299052081F82000012089
:100FE0008DF80F008DE0E3E70298007E012807D11D
:100FF000FFE702980168086840F08000086006E09A
:1010000002980168086820F080000860FFE70298F5
:10101000407E012807D1FFE702980168086840F088
:101020004000086006E002980168086820F040006F
:101030000860FFE70298807E012807D1FFE7029849
:101040000168086840F02000086006E00298016826
:10105000086820F020000860FFE70298C07E0128A1
:1010600007D1FFE702980168086820F010000860C7
:1010700006E002980168086840F010000860FFE789
:101080000298007F012807D1FFE7029801680868ED
:1010900040F00800086006E002980168086820F047
:1010A00008000860FFE70298407F012807D1FFE7AA
:1010B00002980168086840F00400086006E00298A1
:1010C0000168086820F004000860FFE7029B1968C7
:1010D0005A689868D3F80CC040EA0C00D3F810C0E6
:1010E00040EA0C005B691843013A1043C861029959
:1010F00000204862029A012182F820108DF80F002A
:10110000FFE79DF80F0004B080BD000080B594B0EB
:10111000139000201290119010900F900E90139841
:10112000006846F20041C4F20001884254D1FFE752
:1011300040F27000C2F200000168013101600068F5
:10114000012812D1FFE7FFE700200D9043F6400091
:10115000C4F20200016841F000710160006800F013
:1011600000700D900D98FFE7FFE7FFE700200C905F
:1011700043F63000C4F20200016841F00101016051
:10118000006800F001000C900C98FFE74FF4C0508D
:101190000E9002200F9000200790109003201190D5
:1011A000092012900020C4F202000EA900F02AFAD1
:1011B000079A142005900521069100F0DDFC0598A2
:1011C00000F0D0FC0699079A1520089000F0D4FC96
:1011D000089800F0C7FC6FE01398006846F600011D
:1011E000C4F20001884266D1FFE7FFE700200B90C0
:1011F00043F64000C4F20200016841F080610160E2
:10120000006800F080600B900B98FFE740F27000E0
:10121000C2F200000168013101600068012812D1AA
:10122000FFE7FFE700200A9043F64000C4F2020007
:10123000016841F000710160006800F000700A90E0
:101240000A98FFE7FFE7FFE70020099043F6300028
:10125000C4F20200016841F002010160006800F080
:10126000020009900998FFE74FF440500E900220C9
:101270000F900020039010900320119009201290ED
:1012800040F20040C4F202000EA900F0BBF9039A3C
:10129000402001900521029100F06EFC019800F0C1
:1012A00061FC0299039A4120049000F065FC0498C7
:1012B00000F058FCFFE7FFE714B080BD81B000905C
:1012C00001B0704780B592B01190119840F26461FE
:1012D000C2F20001884242D1FFE740F26460C2F2EC
:1012E000000040F2A653C2F2000300210AAAFFF751
:1012F00019FB18B1FFE7FFF765F9FFE700208DF84C
:101300002700FFE79DF8270040F2A451C2F2000138
:101310000978884222DAFFE79DF8271040F25450FE
:10132000C2F2000050F8210088B1FFE79DF82710B5
:1013300040F25450C2F2000050F8210001684B689E
:1013400040F2A651C2F200010AAA9847FFE7FFE760
:101350009DF8270001308DF82700D3E74AE0119867
:1013600040F28C61C2F20001884242D1FFE740F2B4
:101370008C60C2F2000040F2AE53C2F200030021C2
:1013800002AAFFF7CFFA18B1FFE7FFF71BF9FFE753
:1013900000208DF80700FFE79DF8070040F2A551F7
:1013A000C2F200010978884222DAFFE79DF80710AF
:1013B00040F27C50C2F2000050F8210088B1FFE7F3
:1013C0009DF8071040F27C50C2F2000050F8210056
:1013D00001684B6840F2AE51C2F2000102AA984780
:1013E000FFE7FFE79DF8070001308DF80700D3E71E
:1013F000FFE7FFE712B080BD81B0009001B07047F9
:1014000081B0009001B0704781B0009001B070478A
:1014100080B584B00290029890F8200001282FD166
:10142000FFE70299022081F820000298016808680D
:1014300020F00100086000F0C1FA0190FFE7029877
:1014400000684068C007A8B1FFE700F0B7FA01994B
:10145000401A0B280DD3FFE70299486A40F4003088
:1014600048620299052081F8200001208DF80F00C4
:101470000FE0E4E70299002048628DF80F0008E0D1
:101480000299486A40F40020486201208DF80F005C
:10149000FFE79DF80F0004B080BD000081B0009010
:1014A00001B0704781B0009001B0704781B00090EA
:1014B00001B0704781B0009001B0704781B00090DA
:1014C00001B0704781B0009001B0704781B00090CA
:1014D00001B0704780B584B002900298806D019091
:1014E00000F06CFA0090029890F8350002280DD0B8
:1014F000FFE7029980204865FFE70299002081F804
:101500003400FFE701208DF80F0055E002980168D4
:10151000086820F01600086002980168486920F009
:10152000800048610298006C20B9FFE70298806C47
:1015300038B1FFE702980168086820F008000860E9
:10154000FFE702980168086820F001000860FFE7E3
:10155000029800680068C007C8B1FFE700F02EFAE3
:101560000099401A062811D3FFE702992020486508
:101570000299032081F83500FFE70299002081F8E5
:101580003400FFE703208DF80F0015E0E0E7029834
:10159000C16D3F208840019988600299012081F83F
:1015A0003500FFE70299002081F83400FFE7FFE7EC
:1015B00000208DF80F00FFE79DF80F0004B080BDFC
:1015C00082B00090009890F83500022807D0FFE71D
:1015D00000998020486501208DF807000EE00099F1
:1015E000052081F8350000980168086820F00100A6
:1015F0000860FFE700208DF80700FFE79DF807006F
:1016000002B070478EB00D900C9100200A900990A6
:1016100008900B90FFE70B980F2800F2CC81FFE7B2
:101620000B99012088400A900C9800680A9908409C
:10163000099009980A99884240F0B881FFE70C9810
:10164000406800F00300012807D0FFE70C984068CD
:1016500000F0030002282FD1FFE70D988068089062
:101660000B984100032000FA01F108988843089084
:101670000C98C0680B99490000FA01F108980843DA
:10168000089008980D9988600D98406808900B990B
:10169000012000FA01F10898884308900C984068EE
:1016A000C0F300100B9900FA01F108980843089064
:1016B00008980D994860FFE70C98406800F0030017
:1016C000032818D0FFE70D98C06808900B984100D8
:1016D000032000FA01F10898884308900C9880686C
:1016E0000B99490000FA01F10898084308900898FE
:1016F0000D99C860FFE70C98406800F003000228CD
:1017000026D1FFE70D980B996FF0030202EA510111
:101710000844006A08900B9800F0070081000F2031
:1017200000FA01F10898884308900C9800690B9919
:1017300001F00701890000FA01F1089808430890B8
:1017400008980D990B9B02EA530211440862FFE7C7
:101750000D98006808900B984100032000FA01F1F1
:101760000898884308900C98406800F003000B9993
:10177000490000FA01F108980843089008980D996B
:1017800008600C9880798007002800F00E81FFE740
:10179000FFE70020079043F64400C4F2020001680E
:1017A00041F480410160006800F480400790079890
:1017B000FFE70B9820F0030043F60801C4F2010193
:1017C000405808900B9800F0030081000F2000FAA9
:1017D00001F10898884308900D980021C4F2020195
:1017E000884203D1FFE7002006905EE00D9840F2AA
:1017F0000041C4F20201884203D1FFE701200590B5
:1018000050E00D9840F60001C4F20201884203D175
:10181000FFE70220049042E00D9840F60041C4F238
:101820000201884203D1FFE70320039034E00D98C2
:1018300041F20001C4F20201884203D1FFE7042013
:10184000029026E00D9841F20041C4F20201884264
:1018500003D1FFE70520019018E00D9841F6000143
:10186000C4F20201884203D1FFE7062000900AE09B
:101870000D9941F60042C4F202020820914208BFCD
:1018800007200090FFE700980190FFE70198029081
:10189000FFE702980390FFE703980490FFE704989E
:1018A0000590FFE705980690FFE70698C0B20B99F0
:1018B00001F00301890000FA01F10898084308903B
:1018C00008980B9921F0030143F60802C4F20102C3
:1018D000885043F60840C4F2010000680890099956
:1018E0000898884308900C988079C006002805D590
:1018F000FFE70999089808430890FFE7089843F61E
:101900000841C4F20101086043F60C40C4F2010032
:101910000068089009990898884308900C98807985
:101920008006002805D5FFE7099908980843089024
:10193000FFE7089843F60C41C4F20101086043F642
:101940000440C4F20100006808900999089888438F
:1019500008900C9880798007002805D5FFE7099941
:10196000089808430890FFE7089843F60441C4F23A
:101970000101086043F60040C4F2010000680890CD
:1019800009990898884308900C988079C00728B175
:10199000FFE70999089808430890FFE7089843F67D
:1019A0000041C4F201010860FFE7FFE7FFE70B9881
:1019B00001300B902FE60EB07047000044F69010F7
:1019C000C2F200000068704740F20400C2F200005A
:1019D000027844F69011C2F20001086810440860D1
:1019E0007047000080B543F60041C4F20201086868
:1019F00040F400700860086840F48060086008687F
:101A000040F480700860032000F0D0F80F2000F050
:101A100005F800F07BF8002080BD000080B58CB098
:101A20000B90002004900390FFE70020009043F605
:101A30004000C4F20200016841F01001016000683A
:101A400000F0100000900098FFE706A802A900F03F
:101A5000E7F909980490049820B9FFE700F010FA1C
:101A6000059004E000F00CFA40000590FFE70598AF
:101A70004DF68361C4F21B31A0FB01014FF0FF3032
:101A800000EB9140039040F2B460C2F2000041F2DA
:101A90000001C4F20001016040F2E731C160039926
:101AA0004160002101618160816100F0E9FD8DF8F4
:101AB00007009DF8070028BBFFE740F2B460C2F2C0
:101AC000000000F02FFE8DF807009DF80700C0B958
:101AD000FFE7362000F046F80B980F280CD8FFE7F8
:101AE0000B993620002200F047F80B9840F20801CD
:101AF000C2F20001086003E001208DF80700FFE753
:101B0000FFE7FFE79DF807000CB080BD80B582B00D
:101B1000FFE70020019043F64400C4F20200016890
:101B200041F480410160006800F480400190019818
:101B3000FFE7FFE70020009043F64000C4F20200F8
:101B4000016841F080510160006800F08050009011
:101B50000098FFE76FF001000F21002200F00CF861
:101B600002B080BD80B582B08DF807009DF90700F6
:101B700003F064FB02B080BD80B586B08DF817001D
:101B8000049103920020029003F070FB02909DF9F3
:101B90001700019002980499039A01F0A5FD0146EF
:101BA000019803F06BFB06B080BD000080B582B0E9
:101BB0000190019803F0A6FB02B080BD80B584B00F
:101BC00002900191029820B9FFE701208DF80F00E3
:101BD00021E1019843F60041C4F20201096801F0D5
:101BE0000701884212D9FFE7019943F60040C4F289
:101BF00002000170006800F007000199884204D0DB
:101C0000FFE701208DF80F0005E1FFE7029800785B
:101C1000800700282AD5FFE70298007840070028AF
:101C200009D5FFE743F60801C4F20201086840F451
:101C3000E0500860FFE7029800780007002809D507
:101C4000FFE743F60801C4F20201086840F460406F
:101C50000860FFE743F60801C4F20201086820F0BB
:101C6000F000029A926810430860FFE7029800783B
:101C7000C00700286ED0FFE702984068012811D104
:101C8000FFE743F60000C4F20200006800F40031F0
:101C90000020B0EB514F04D1FFE701208DF80F0079
:101CA000B9E02CE002984068022805D0FFE70298CE
:101CB0004068032811D1FFE743F60000C4F2020098
:101CC000006800F000710020B0EB516F04D1FFE715
:101CD00001208DF80F009EE010E043F60000C4F2F2
:101CE0000200006800F002010020B0EB510F04D1A7
:101CF000FFE701208DF80F008DE0FFE7FFE743F6D7
:101D00000801C4F20201086820F00300029A526838
:101D100010430860FFF752FE0090FFE743F608000B
:101D2000C4F20200006800F00C0002994968B0EBB0
:101D3000810F0ED0FFE7FFF741FE0099401A41F2F4
:101D40008931884204D3FFE703208DF80F0062E059
:101D5000E4E7FFE7019843F60041C4F20201096895
:101D600001F00701884212D2FFE7019943F60040D3
:101D7000C4F202000170006800F007000199884277
:101D800004D0FFE701208DF80F0044E0FFE7029840
:101D90000078400700280CD5FFE743F60801C4F29D
:101DA0000201086820F4E050029AD26810430860EB
:101DB000FFE702980078000700280DD5FFE743F6FB
:101DC0000801C4F20201086820F46040029A126916
:101DD00040EAC2000860FFE700F076F843F6080129
:101DE000C4F202010968C9B20A0948F2BE01C0F68C
:101DF0000001895CC84040F20001C2F200010860A5
:101E000040F20800C2F200000068FFF707FE002061
:101E10008DF80F00FFE79DF80F0004B080BD0000B3
:101E200082B00190009101990F20086043F60800EC
:101E3000C4F20200016801F00301019A51600168D7
:101E400001F0F001019A9160016801F4E051019AFA
:101E5000D160006800F46040C0080199086143F651
:101E60000040C4F20200006800F00700009908601A
:101E700002B0704740F20000C2F2000000687047F4
:101E800080B5FFF7F7FF43F60801C4F202010968C5
:101E9000C1F3822248F2CE01C0F60001895CC8403D
:101EA00080BD000080B5FFF7E5FF43F60801C4F2EE
:101EB0000201096889B24A0B48F2CE01C0F600015E
:101EC000895CC84080BD000080B586B000200590C8
:101ED00004900390029043F60800C4F202000068E8
:101EE00000F00C000146019140B1FFE70198042881
:101EF0000AD0FFE7019808280CD04FE042F20040DA
:101F0000C0F2F40002904FE041F20020C0F27A00EB
:101F1000029049E043F60400C4F20200016801F0B7
:101F20003F01059100684002002813D5FFE743F602
:101F30000400C4F202000068C0F3881041F20021DE
:101F4000C0F27A01A0FB0101059A0023FEF7A4F973
:101F5000049012E043F60400C4F202000068C0F3EB
:101F6000881042F20041C0F2F401A0FB0101059A81
:101F70000023FEF791F90490FFE743F60400C4F252
:101F80000200006800F44031022000EBD1300390E1
:101F900004980399B0FBF1F0029005E042F2004092
:101FA000C0F2F4000290FFE7029806B080BD000086
:101FB00080B586B00490049820B9FFE701208DF821
:101FC000170050E304980078C007002800F0A580AF
:101FD000FFE743F60800C4F20200006800F00C00BE
:101FE000042813D0FFE743F60800C4F2020000689B
:101FF00000F00C0008281ED1FFE743F60400C4F2ED
:10200000020000684002002815D5FFE743F60000F3
:10201000C4F20200006800F400310020B0EB514F20
:1020200008D0FFE70498406820B9FFE701208DF849
:10203000170018E370E0FFE704984068B0F5803FB0
:1020400009D1FFE743F60001C4F20201086840F439
:102050008030086020E004984068B0F5A02F0DD1D2
:10206000FFE743F60001C4F20201086840F4802053
:102070000860086840F4803008600CE043F6000116
:10208000C4F20201086820F480300860086820F477
:1020900080200860FFE7FFE7FFE704984068E8B1A9
:1020A000FFE7FFF78BFC0390FFE743F60000C4F265
:1020B0000200006800F400310020B0EB514F0CD159
:1020C000FFE7FFF77BFC0399401A652804D3FFE77D
:1020D00003208DF81700C6E2E7E71CE0FFF76EFC6F
:1020E0000390FFE743F60000C4F20200006800F42A
:1020F00000310020B0EB514F0CD0FFE7FFF75EFC42
:102100000399401A652804D3FFE703208DF81700D0
:10211000A9E2E7E7FFE7FFE7FFE704980078800719
:10212000002840F19680FFE743F60800C4F2020061
:10213000006810F00C0F13D0FFE743F60800C4F25C
:102140000200006800F00C0008282CD1FFE743F6DD
:102150000400C4F2020000684002002823D4FFE714
:1021600043F60000C4F20200006800F00201002003
:10217000B0EB510F09D0FFE70498C068012804D0E4
:10218000FFE701208DF817006DE243F60001C4F26D
:102190000201086820F0F800049A126940EAC200BF
:1021A0000860FFE754E00498C06870B3FFE70021BF
:1021B000C4F2472101200860FFF700FC0390FFE70D
:1021C00043F60000C4F20200006800F002010020A3
:1021D000B0EB510F0CD1FFE7FFF7F0FB0399401A6A
:1021E000032804D3FFE703208DF817003BE2E7E75D
:1021F00043F60001C4F20201086820F0F800049AD6
:10220000126940EAC200086021E00021C4F24721BF
:1022100000200860FFF7D2FB0390FFE743F60000C1
:10222000C4F20200006800F002010020B0EB510F80
:102230000CD0FFE7FFF7C2FB0399401A032804D331
:10224000FFE703208DF817000DE2E7E7FFE7FFE760
:10225000FFE704980078000700284BD5FFE70498B3
:10226000406918B3FFE740F68061C4F247210120BE
:102270000860FFF7A3FB0390FFE743F67400C4F286
:102280000200006800F002010020B0EB510F0CD1F9
:10229000FFE7FFF793FB0399401A032804D3FFE7F6
:1022A00003208DF81700DEE1E7E722E040F68061C9
:1022B000C4F2472100200860FFF780FB0390FFE78E
:1022C00043F67400C4F20200006800F0020100202E
:1022D000B0EB510F0CD0FFE7FFF770FB0399401AEA
:1022E000032804D3FFE703208DF81700BBE1E7E7DD
:1022F000FFE7FFE7049800784007002840F1CE8010
:10230000FFE700208DF8070043F64000C4F202000A
:102310000068C000002815D4FFE7FFE70020009008
:1023200043F64000C4F20200016841F080510160B0
:10233000006800F0805000900098FFE701208DF8C1
:102340000700FFE747F20000C4F200000068C00584
:10235000002822D4FFE747F20001C4F20001086818
:1023600040F480700860FFF729FB0390FFE747F215
:102370000000C4F200000068C00500280CD4FFE78C
:10238000FFF71CFB0399401A032804D3FFE703203F
:102390008DF8170067E1EAE7FFE7FFE70498806838
:1023A000012809D1FFE743F67001C4F20201086871
:1023B00040F0010008601FE00498806805280DD1F6
:1023C000FFE743F67001C4F20201086840F0040020
:1023D0000860086840F0010008600CE043F67001F6
:1023E000C4F20201086820F001000860086820F0CB
:1023F00004000860FFE7FFE7FFE704988068F8B192
:10240000FFE7FFF7DBFA0390FFE743F67000C4F243
:102410000200006800F002010020B0EB510F0ED165
:10242000FFE7FFF7CBFA0399401A41F2893188425E
:1024300004D3FFE703208DF8170014E1E5E71EE061
:10244000FFF7BCFA0390FFE743F67000C4F2020006
:10245000006800F002010020B0EB510F0ED0FFE742
:10246000FFF7ACFA0399401A41F28931884204D34C
:10247000FFE703208DF81700F5E0E5E7FFE79DF89B
:102480000700012809D1FFE743F64001C4F2020129
:10249000086820F080500860FFE7FFE70498806933
:1024A000002800F0DC80FFE743F60800C4F20200D9
:1024B000006800F00C00082800F08580FFE7049811
:1024C000806902285CD1FFE76021C4F24721002027
:1024D0000860FFF773FA0390FFE743F60000C4F2C9
:1024E0000200006800F000710020B0EB516F0CD0CA
:1024F000FFE7FFF763FA0399401A032804D3FFE7C5
:1025000003208DF81700AEE0E7E70499C869D1F819
:1025100020C04B6A8A6A40EA0C0040EA8310D2036A
:102520004FF6FF739A43A2F580321043C96A40EA1E
:10253000016043F60401C4F2020108606021C4F2A4
:10254000472101200860FFF739FA0390FFE743F6BF
:102550000000C4F20200006800F000710020B0EB3F
:10256000516F0CD1FFE7FFF729FA0399401A0328AE
:1025700004D3FFE703208DF8170074E0E7E721E0BC
:102580006021C4F2472100200860FFF717FA03908A
:10259000FFE743F60000C4F20200006800F000719B
:1025A0000020B0EB516F0CD0FFE7FFF707FA03995B
:1025B000401A032804D3FFE703208DF8170052E0E8
:1025C000E7E7FFE74AE004988069012804D1FFE7C4
:1025D00001208DF8170046E043F60400C4F2020023
:1025E0000068029004988069012831D0FFE70298C2
:1025F00000F480000499C969884229D1FFE7029854
:1026000000F03F000499096A884221D1FFE702984F
:1026100047F6C07108400499496AB0EB811F17D191
:10262000FFE7029800F440300499896AC9034FF625
:10263000FF729143A1F58031884209D1FFE70298EA
:1026400000F070600499C96AB0EB016F04D0FFE735
:1026500001208DF8170006E0FFE7FFE7FFE7002005
:102660008DF81700FFE79DF8170006B080BD000049
:1026700081B0009001B0704781B0009001B0704708
:1026800080B582B00090009820B9FFE701208DF856
:1026900007003FE0009890F83D0040B9FFE700993F
:1026A000002081F83C00009800F038F8FFE700991E
:1026B000022081F83D00009951F8040B01F078F9EF
:1026C0000099012081F84600FFE70099012081F878
:1026D0003E00009981F83F00009981F84000009980
:1026E00081F84100FFE7FFE70099012081F84200EF
:1026F000009981F84300009981F84400009981F81D
:102700004500FFE70099012081F83D0000208DF889
:102710000700FFE79DF8070002B080BD81B0009080
:1027200001B0704783B00190019890F83D000128F6
:1027300004D0FFE701208DF80B006AE00199022028
:1027400081F83D0001980168C86840F00100C86048
:10275000019800680021C4F2010188423CD0FFE7E3
:1027600001980068B0F1804F36D0FFE7019800680B
:1027700040F20041C4F2000188422DD0FFE70198E9
:10278000006840F60001C4F20001884224D0FFE74F
:102790000198006840F60041C4F2000188421BD055
:1027A000FFE70198006840F20041C4F2010188424D
:1027B00012D0FFE70198006844F20001C4F2010161
:1027C000884209D0FFE70198006841F60001C4F291
:1027D0000001884212D1FFE701980068806800F08C
:1027E000070000900098062807D0FFE701980168CD
:1027F000086840F001000860FFE706E00198016802
:10280000086840F001000860FFE700208DF80B0029
:10281000FFE79DF80B0003B07047000081B0009007
:1028200001B0704780B584B0039003980068C06819
:10283000029003980068006901909DF804008007E9
:10284000002824D5FFE79DF80800800700281DD543
:10285000FFE7039801686FF0020008610399012007
:102860000877039800688069800720B1FFE7039824
:10287000FFF7D4FF06E0039800F0E2F8039800F0B9
:10288000E3F8FFE7039900200877FFE7FFE79DF8EB
:1028900004004007002825D5FFE79DF80800400701
:1028A00000281ED5FFE7039801686FF00400086157
:1028B00003990220087703980068806910F4407F2C
:1028C00004D0FFE70398FFF7A9FF06E0039800F0A4
:1028D000B7F8039800F0B8F8FFE7039900200877ED
:1028E000FFE7FFE79DF804000007002824D5FFE775
:1028F0009DF80800000700281DD5FFE70398016830
:102900006FF00800086103990420087703980068B5
:10291000C069800720B1FFE70398FFF77FFF06E05B
:10292000039800F08DF8039800F08EF8FFE7039904
:1029300000200877FFE7FFE79DF80400C0060028A5
:1029400025D5FFE79DF80800C00600281ED5FFE743
:10295000039801686FF01000086103990820087758
:1029600003980068C06910F4407F04D0FFE7039823
:10297000FFF754FF06E0039800F062F8039800F0B8
:1029800063F8FFE7039900200877FFE7FFE79DF86A
:102990000400C00778B1FFE79DF80800C00748B100
:1029A000FFE7039801686FF001000861039800F0E9
:1029B0004FF8FFE7FFE79DF804000006002810D558
:1029C000FFE79DF808000006002809D5FFE70398F7
:1029D00001686FF0800008610398FFF749FEFFE788
:1029E000FFE79DF804004006002810D5FFE79DF89A
:1029F00008004006002809D5FFE7039801686FF03A
:102A000040000861039800F035F8FFE7FFE79DF804
:102A100004008006002810D5FFE79DF80800800616
:102A2000002809D5FFE7039801686FF020000861CE
:102A30000398FFF721FEFFE7FFE704B080BD000029
:102A400081B0009001B0704781B0009001B0704734
:102A500080B582B001900198006841F20001C4F293
:102A60000001884203D1FFE7FEF7AEFFFFE702B0A7
:102A700080BD000081B0009001B0704782B001902D
:102A8000ADF8021002B0704781B0009001B07047FD
:102A900080B592B01190119800680068109011985C
:102AA0000068C0680F901198006840690E9000207F
:102AB0000D900C90109800F00F000D900D9888B9B3
:102AC000FFE79DF84000800600280AD5FFE79DF843
:102AD0003C008006002804D5FFE7119801F0B8F803
:102AE000EAE1FFE70D98002800F0C280FFE79DF8BB
:102AF0003800C00738B9FFE7BDF83C0010F4907FFC
:102B000000F0B680FFE79DF84000C00758B1FFE72E
:102B10009DF83D00C00730B1FFE71199486C40F0C7
:102B200001004864FFE79DF84000400700280BD5EE
:102B3000FFE79DF83800C00730B1FFE71199486CF6
:102B400040F002004864FFE79DF84000800700283D
:102B50000BD5FFE79DF83800C00730B1FFE71199AA
:102B6000486C40F004004864FFE79DF8400000070F
:102B7000002811D5FFE79DF83C008006002805D409
:102B8000FFE79DF83800C00730B1FFE71199486CA6
:102B900040F008004864FFE71198406C002866D0B8
:102BA000FFE79DF84000800600280AD5FFE79DF862
:102BB0003C008006002804D5FFE7119801F048F892
:102BC000FFE7119800684069C0F380100C901198DD
:102BD000406C0007002804D4FFE70C9800283ED082
:102BE000FFE7119800F0D6FF119800684069400691
:102BF00000282FD5FFE7FFE7FFE71198006850E8AE
:102C0000050F20F040000B90FFE70B991198026828
:102C100042E805100028F0D1FFE7FFE71198C06BEC
:102C200098B1FFE71198C16B43F67530C0F600000C
:102C300008651198C06BFEF7C3FC28B1FFE7119837
:102C4000C06B016D8847FFE703E01198FFF71CFF99
:102C5000FFE703E01198FFF717FFFFE706E0119881
:102C6000FFF712FF119900204864FFE7FFE723E117
:102C70001198006B012840F0FF80FFE79DF84000AD
:102C8000C006002840F1F880FFE79DF83C00C00630
:102C9000002840F1F180FFE7FFE700200A9011983B
:102CA000006800680A901198006840680A900A98C5
:102CB000FFE71198006840694006002840F18280D3
:102CC000FFE71198C06B00684068ADF82600BDF8BA
:102CD0002600002875D0FFE7BDF826001199898DE0
:102CE00088426EDAFFE7BDF826001199C885119871
:102CF000C06BC069B0F5807F58D0FFE7FFE7FFE702
:102D00001198006850E8030F20F480700890FFE7E6
:102D100008991198026842E803100028F0D1FFE7F3
:102D2000FFE7FFE7FFE71198006850E8050F20F084
:102D300001000790FFE707991198026842E8051023
:102D40000028F0D1FFE7FFE7FFE7FFE711980068F1
:102D500050E8050F20F040000690FFE70699119813
:102D6000026842E805100028F0D1FFE7FFE711995B
:102D7000202081F84200119900200863FFE7FFE757
:102D80001198006850E8030F20F010000590FFE74D
:102D900005991198026842E803100028F0D1FFE776
:102DA000FFE71198C06BFEF795FBFFE71199022032
:102DB00048631198818DC28D891A89B2FFF75EFE32
:102DC000FFE779E01199888DC98D401AADF812009E
:102DD0001198C08D00284ED0FFE7BDF812000028E2
:102DE00049D0FFE7FFE7FFE71198006850E8030FBD
:102DF00020F490700390FFE703991198026842E86D
:102E000003100028F0D1FFE7FFE7FFE7FFE7119885
:102E1000006850E8050F20F001000290FFE70299DA
:102E20001198026842E805100028F0D1FFE7FFE79B
:102E30001199202081F84200119900200863FFE7D2
:102E4000FFE71198006850E8030F20F01000019090
:102E5000FFE701991198026842E803100028F0D1B9
:102E6000FFE7FFE71199022048631198BDF812109F
:102E7000FFF704FEFFE71FE09DF840000006002872
:102E80000AD5FFE79DF83C000006002804D5FFE7BF
:102E9000119801F063F80FE09DF84000400600280B
:102EA0000AD5FFE79DF83C004006002804D5FFE75F
:102EB000119800F0B9FEFFE712B080BD80B582B076
:102EC0000090009820B9FFE701208DF8070040E04E
:102ED0000098806908B1FFE700E0FFE7009890F8EC
:102EE000410040B9FFE70099002081F840000098B8
:102EF00000F034F8FFE70099242081F841000098A1
:102F00000168C86820F40050C860009800F056FFBF
:102F100000980168086920F49040086100980168F1
:102F2000486920F02A00486100980168C86840F4A8
:102F30000050C860009900204864009A202182F85F
:102F40004110009A82F84210009948638DF80700FA
:102F5000FFE79DF8070002B080BD000080B59CB07F
:102F60001B9000201A9019901890179016901B989B
:102F7000006841F20001C4F2010188423ED1FFE73E
:102F8000FFE70020159043F64400C4F202000168F8
:102F900041F010010160006800F0100015901598D4
:102FA000FFE7FFE70020149043F63000C4F2020070
:102FB000016841F001010160006800F00100149017
:102FC0001498FFE74FF4C06016900220179000207D
:102FD0000B9018900320199007201A900020C4F23B
:102FE000020016A9FEF70EFB0B9A25200C90052176
:102FF000FEF7C2FD0C98FEF7B5FD03E11B980068D3
:1030000044F20041C4F2000188423ED1FFE7FFE7ED
:103010000020139043F64000C4F20200016841F41E
:1030200000310160006800F4003013901398FFE74E
:10303000FFE70020129043F63000C4F2020001685E
:1030400041F008010160006800F008001290129839
:10305000FFE760201690022017900020099018903A
:103060000320199007201A9040F60040C4F2020095
:1030700016A9FEF7C7FA099A26200A900521FEF73D
:103080007BFD0A98FEF76EFDBBE01B98006844F6D6
:103090000001C4F20001884269D1FFE7FFE7002088
:1030A000119043F64000C4F20200016841F480210F
:1030B0000160006800F4802011901198FFE7FFE79D
:1030C0000020109043F63000C4F20200016841F085
:1030D00002010160006800F0020010901098FFE704
:1030E000FFE700200F9043F63000C4F202000168B1
:1030F00041F008010160006800F008000F900F988F
:10310000FFE74FF49840169002200390179000209C
:1031100007901890032004901990072005901A90AA
:1031200040F20040C4F2020016A90691FEF76AFAC6
:10313000DDF80CC0049A05980699079B4FF4006EC1
:10314000CDF858E0CDF85CC0189319921A9040F66B
:103150000040C4F20200FEF755FA079A27200890B3
:103160000521FEF709FD0898FEF7FCFC48E01B98D6
:10317000006841F20041C4F2010188423FD1FFE7FB
:10318000FFE700200E9043F64400C4F202000168FD
:1031900041F020010160006800F020000E900E98C0
:1031A000FFE7FFE700200D9043F63000C4F2020075
:1031B000016841F040010160006800F040000D909E
:1031C0000D98FFE74FF484401690022017900020DE
:1031D000019018900320199008201A9041F60000E1
:1031E000C4F2020016A9FEF70DFA019A47200290D8
:1031F0000521FEF7C1FC0298FEF7B4FCFFE7FFE7EC
:10320000FFE7FFE71CB080BD80B584B0029001915C
:10321000ADF80220029890F84200202817D1FFE76D
:10322000019820B1FFE7BDF8020020B9FFE70120B7
:103230008DF80F000FE002990020086302980199B1
:10324000BDF8022000F058FE8DF80F0003E00220C8
:103250008DF80F00FFE79DF80F0004B080BD00005F
:1032600080B584B0039000200190FFE7019840F200
:10327000FC41C2F20001096888422EDAFFE7019999
:1032800040F2DC40C2F2000050F82100806803994F
:1032900088421DD1FFE7019940F2DC40C2F20000F4
:1032A000009050F8211009798DF80B10019950F811
:1032B00021009DF80B100268126890470098019950
:1032C00050F82110886804310122FFF79DFFFFE7C5
:1032D000FFE7019801300190C8E704B080BD00000D
:1032E00080B58AB008900791ADF81A2005930020A8
:1032F0000290089890F84100202840F08180FFE774
:10330000079820B1FFE7BDF81A0020B9FFE70120B8
:103310008DF8270078E0089900204864089921205A
:1033200081F84100FEF74AFB0290BDF81A000899A7
:103330008884BDF81A000899C88408988068B0F598
:10334000805F09D1FFE70898006928B9FFE70020EE
:1033500004900798039004E00798049000200390DD
:10336000FFE7FFE70898C08C78B3FFE70898029B57
:1033700005996A4611608021002200F039FE40B1B3
:10338000FFE70899202081F8410003208DF82700ED
:103390003AE0049858B9FFE7039800886FF35F207C
:1033A00008990968486003980230039008E004987F
:1033B0000078089909684860049801300490FFE794
:1033C0000899C88C0138C884CCE70898029B0599F5
:1033D0006A4611604021002200F00AFE40B1FFE77A
:1033E0000899202081F8410003208DF827000BE088
:1033F0000899202081F8410000208DF8270003E083
:1034000002208DF82700FFE79DF827000AB080BD55
:1034100081B0009001B07047FFE7FEE780B582B051
:1034200040F26460C2F20000009046F20041C4F233
:103430000001016003214160002101918160C160B0
:103440004FF4002202614FF440124261017641764E
:103450008176C17601774177FDF768FD18B1FFE706
:10346000FDF7B0F8FFE702B080BD000080B582B084
:1034700040F28C60C2F20000009046F60001C4F2F7
:103480000001016003214160002101918160C16060
:103490004FF4002202614FF44012426101764176FE
:1034A0008176C17601774177FDF740FD18B1FFE7DE
:1034B000FDF788F8FFE702B080BD000080B582B05C
:1034C00043F60500C0F6000048F24012C0F60002C4
:1034D0000021019102F022F8019940F2BC52C2F29F
:1034E0000002106043F66130C0F6000048F21C1282
:1034F000C0F6000202F012F840F2B851C2F2000128
:10350000086002B080BD000086B0FFE70020059093
:1035100043F63000C4F20200016841F0040101608A
:10352000006800F0040005900598FFE7FFE7002021
:10353000049043F63000C4F20200016841F08001BB
:103540000160006800F0800004900498FFE7FFE746
:103550000020039043F63000C4F20200016841F0FD
:1035600002010160006800F0020003900398FFE789
:10357000FFE70020029043F63000C4F20200016829
:1035800041F008010160006800F008000290029814
:10359000FFE7FFE70020019043F63000C4F202008D
:1035A000016841F001010160006800F00100019034
:1035B0000198FFE7FFE70020009043F63000C4F2D7
:1035C0000200016841F040010160006800F0400025
:1035D00000900098FFE706B07047000080B582B009
:1035E00040F2FC60C2F20000019041F20001C4F21E
:1035F000010101604FF4E131416000218160C1604F
:1036000001610C2242618161C161FFF757FC18B171
:10361000FFE7FCF7D7FFFFE702B080BD80B582B0BF
:1036200040F24470C2F20000019044F20041C4F242
:10363000000101604FF4E131416000218160C1600F
:1036400001610C2242618161C161FFF737FC18B151
:10365000FFE7FCF7B7FFFFE702B080BD80B582B09F
:1036600040F28C70C2F20000019044F60001C4F2F6
:10367000000101604FF4E131416000218160C160CF
:1036800001610C2242614FF440728261C161FFF717
:1036900015FC18B1FFE7FCF795FFFFE702B080BD0E
:1036A00080B582B040F2D470C2F20000019041F2C5
:1036B0000041C4F2010101604FF4E12141600021A9
:1036C0008160C16001610C2242618161C161FFF7CB
:1036D000F5FB18B1FFE7FCF775FFFFE702B080BD0F
:1036E000FFE7FEE7FFE7FEE788B007900691059247
:1036F000079800F0070004900498C0F1070005281F
:1037000003D3FFE70420019004E00498C0F1070010
:103710000190FFE70198039004980430062803D82D
:10372000FFE70020009003E0049803380090FFE7D3
:103730000098029006980399012202FA01F10139DA
:103740000840029B984005999A40013A114008436D
:1037500008B07047000000000000000000000000FA
:10376000EFF30980BFF36F8F154B1A681EF0100F2F
:1037700008BF20ED108A20E9F04F10602DE9090004
:103780004FF0500080F31188BFF34F8FBFF36F8F5E
:1037900003F048FB4FF0000080F31188BDE80900FA
:1037A00019680868B0E8F04F1EF0100F08BFB0ECC1
:1037B000108A80F30988BFF36F8F704700BF00BF86
:1037C00010090020000000000000000000000000C0
:1037D000074B19680868B0E8F04F80F30988BFF319
:1037E0006F8F4FF0000080F31188704700BF00BF5B
:1037F0001009002080B56FF00400002101F060FD89
:1038000080BD000080B582B0019001F0DBFDFFE7D4
:1038100000F004F80A2001F019FEF9E780B582B043
:1038200045F26000C2F20000019090ED0F0AD0ED69
:10383000100A90ED111AD0ED121A90ED132A40F2F1
:10384000C050C2F200000090DFED172A01F0F2FA3A
:10385000009845F2C011C2F2000191ED0F0A9FEDF0
:10386000131A20EE010A01F021FA009801F096F9EE
:1038700040F26460C2F200004FF4007101F034FACB
:103880000099019891ED1B0A00F0A2FC00990198A3
:10389000B1F9921000EE101AB8EEC00A00F098FCD0
:1038A00000F048FD02B080BD0000804600004843A3
:1038B00080B54EF21000CEF20000006804F08EF8E1
:1038C000012803D0FFE703F0BDFBFFE780BD000048
:1038D00080B594B008A83021FCF7A3FD0020079024
:1038E0000690059004900390FFE70020029043F6B5
:1038F0004000C4F20200016841F08051016000689C
:1039000000F0805002900298FFE7FFE7002001904E
:1039100047F20000C4F20000016841F480410160F8
:10392000006800F4804001900198FFE701200890B2
:103930004FF48030099002210E914FF480000F90D7
:1039400004201090A82211921291139008A8FEF75B
:103950002FFB18B1FFE7FCF735FEFFE70F200390C0
:1039600002200490002005904FF4A05006904FF4E0
:103970008050079003A80521FEF720F918B1FFE752
:10398000FCF720FEFFE714B080BD00004EF6885122
:10399000CEF20001086840F4700008607047000033
:1039A00080B540F2B460C2F20000FEF73BFF80BD7C
:1039B00083B0029001910298006800900298002163
:1039C000C4F20101884225D0FFE70298B0F1804F90
:1039D00020D0FFE7029840F20041C4F20001884283
:1039E00018D0FFE7029840F60001C4F200018842B7
:1039F00010D0FFE7029840F60041C4F2000188426F
:103A000008D0FFE7029840F20041C4F20101884269
:103A10000AD1FFE7009820F07000009001984168FB
:103A2000009808430090FFE702980021C4F20101CA
:103A3000884255D0FFE70298B0F1804F50D0FFE7A1
:103A4000029840F20041C4F20001884248D0FFE7EA
:103A5000029840F60001C4F20001884240D0FFE71E
:103A6000029840F60041C4F20001884238D0FFE7D6
:103A7000029840F20041C4F20101884230D0FFE7D1
:103A8000029844F20001C4F20101884228D0FFE705
:103A9000029844F20041C4F20101884220D0FFE7BD
:103AA000029844F60001C4F20101884218D0FFE7F1
:103AB000029841F60001C4F20001884210D0FFE7ED
:103AC000029841F60041C4F20001884208D0FFE7A5
:103AD000029842F20001C4F2000188420AD1FFE7D5
:103AE000009820F4407000900198C1680098084345
:103AF0000090FFE7009820F0800001994969084391
:103B00000090009802990860019880680299C86244
:103B1000019800680299886202980021C4F20101AC
:103B2000884208D0FFE7029840F20041C4F2010148
:103B3000884205D1FFE70198006902990863FFE711
:103B400002990120486102980069C00730B1FFE77F
:103B50000299086920F001000861FFE703B070478F
:103B600080B582B00190FFE704F084FA022001F0F2
:103B70006DFCF9E780B582B001900198806B0090F0
:103B800000990020C8850099C8840098FEF77CFF42
:103B900002B080BD84B00390FFE7FFE703980068A0
:103BA00050E8030F20F490700290FFE70299039809
:103BB000026842E803100028F0D1FFE7FFE7FFE7C3
:103BC000FFE70398006850E8050F20F0010001901E
:103BD000FFE701990398026842E805100028F0D138
:103BE000FFE7FFE70398006B012814D1FFE7FFE729
:103BF000FFE70398006850E8030F20F010000090E2
:103C0000FFE700990398026842E803100028F0D10A
:103C1000FFE7FFE7FFE70399202081F842000399BF
:103C20000020086304B0704780B582B0019001980D
:103C30000168C86820F04000C8600199202081F820
:103C400041000198FFF7E4FB002002B080BD0000B6
:103C500080B586B00490049890F84200222840F085
:103C6000A480FFE704988068B0F5805F15D1FFE776
:103C70000498006988B9FFE7002003900498806ADF
:103C800002900498006840686FF35F2002990880F2
:103C90000499886A0230886225E00498806A03905B
:103CA0000020029004988068B0F5805F08D0FFE79C
:103CB0000498806850B9FFE70498006930B9FFE7BD
:103CC0000498006840680399087007E00498006849
:103CD000406800F07F0003990870FFE70499886A44
:103CE00001308862FFE70499C88D0138C885000457
:103CF000002856D1FFE704980168C86820F020002A
:103D0000C86004980168C86820F48070C86004988E
:103D10000168486920F0010048610499202081F879
:103D200042000499002048630498006B012830D1B8
:103D3000FFE7049900200863FFE7FFE704980068A5
:103D400050E8030F20F010000190FFE7019904985C
:103D5000026842E803100028F0D1FFE7FFE704986B
:103D600000680068C00600280ED5FFE7FFE70020C6
:103D7000009004980068006800900498006840680B
:103D800000900098FFE7FFE70498818DFEF776FE2C
:103D900003E00498FFF764FAFFE700208DF81700AE
:103DA00007E000208DF8170003E002208DF81700CF
:103DB000FFE79DF8170006B080BD000080B586B013
:103DC000059005980068006920F44050059A116834
:103DD000D26810430861059988680B694A69C96906
:103DE000184310430843049005980068C06849F2DE
:103DF0000C6188430499084305990968C8600598CF
:103E00000068406920F44070059A11689269104377
:103E100048610598006841F20001C4F2010188423E
:103E200009D0FFE70598006841F20041C4F20101A2
:103E3000884204D1FFE7FEF735F8039003E0FEF770
:103E40001FF80390FFE70598C069B0F5004F29D12E
:103E5000FFE703981921A0FB0101059A136802935B
:103E600053685A00DB0FFCF717FA0299864648F2AE
:103E70001F53C5F2EB13AEFB0320420910014FF0B4
:103E8000640C02FB1CEC322202EBCC02A2FB0332DC
:103E9000F82303EA521300EB4300C2F3421210442A
:103EA000886026E003981921A0FB0101059A136898
:103EB000019353689A009B0FFCF7EEF90199844631
:103EC00048F21F52C5F2EB12ACFB023043096420EA
:103ED00003FB10CC322000EB0C10A0FB0202F02000
:103EE00000EA521000EB0310C2F343121044886042
:103EF000FFE706B080BD000083B002900191ADF8ED
:103F00000220019802998862BDF802000299888512
:103F1000BDF802000299C885029900204864029900
:103F2000222081F842000298006938B1FFE7029828
:103F30000168C86840F48070C860FFE702980168B3
:103F4000486940F00100486102980168C86840F083
:103F50002000C860002003B07047000083B00190CB
:103F6000019890F8410021283AD1FFE70198806834
:103F7000B0F5805F13D1FFE70198006978B9FFE7DA
:103F80000198006A0090009800886FF35F20019903
:103F9000096848600199086A0230086208E0019ADD
:103FA000106A411C11620078019909684860FFE7B6
:103FB0000199C88C0138C884000468B9FFE70198EA
:103FC0000168C86820F08000C86001980168C8686E
:103FD00040F04000C860FFE700208DF80B0003E0D0
:103FE00002208DF80B00FFE79DF80B0003B070472F
:103FF00080B586B0DDF820C0049003918DF80B20C9
:104000000193FFE704980068006803990840401A8C
:10401000B0FA80F040099DF80B1088424DD1FFE7BF
:1040200008980130002847D0FFE7FDF7C7FC019949
:10403000401A0899884203D8FFE7089820B9FFE79B
:1040400003208DF817003CE004980068C068400722
:10405000002830D5FFE7039880282CD0FFE703988D
:10406000402828D0FFE704980068006800F00801A5
:104070000120B0EBD10F1DD1FFE7FFE7002000903A
:1040800004980068006800900498006840680090F8
:104090000098FFE70498FFF77DFD04990820486425
:1040A000FFE70499002081F84000FFE701208DF828
:1040B000170006E0FFE7FFE7A4E700208DF81700F0
:1040C000FFE79DF8170006B080BD000080B540F204
:1040D000FC60C2F20000FEF7DBFC80BD80B540F260
:1040E0004470C2F20000FEF7D3FC80BD80B540F200
:1040F0008C70C2F20000FEF7CBFC80BD80B540F2B0
:10410000D470C2F20000FEF7C3FC80BDFFE7FEE7FB
:1041100080B501F015F901F03DF901F047F980BDD6
:1041200080B501F01BF980BD80B584B08446069847
:104130008DF80FC08DF80E10029201938DF80300D8
:104140009DF80F00C007C8B1FFE79DF80E00C0073B
:10415000A0B9FFE702980078C00778B9FFE7019996
:104160000878431C9DF80300421CB3FBF2F000FBEF
:1041700012300870029901200870FFE79DF80F00C7
:10418000C00748B1FFE79DF80E00C00720B1FFE768
:10419000029900200870FFE704B080BD81B0009054
:1041A0000098002180F8201001B0704782B0019083
:1041B0008DF8031002B0704780B582B0019001996C
:1041C000886804310122FFF71FF802B080BD0000AB
:1041D00080B586B004908DED030A04980190806844
:1041E00020B9FFE700208DF8170013E0019803992C
:1041F0000291806802A904224FF0FF33FFF770F8A4
:1042000020B1FFE700208DF8170003E001208DF8B2
:104210001700FFE79DF8170006B080BD85B003903A
:10422000029103990091049148F2D800C0F6000071
:1042300008300860002008734873887340F2FC401F
:10424000C2F200000068092804DBFFE700990020A3
:10425000087334E000208DF80700FFE79DF80700A1
:10426000072818DCFFE79DF8071040F2DC40C2F297
:10427000000050F8210080680299884204D1FFE7CD
:104280000099002008731AE0FFE79DF8070001304D
:104290008DF80700E2E700990298886040F2FC423E
:1042A000C2F20002136840F2DC40C2F2000040F8A3
:1042B000231010680130106001200873FFE7049894
:1042C00005B0704784B00290029803900022014626
:1042D00041F8402B043000910190FFE70199009ACA
:1042E000002041F8040B084691420190F6D1FFE707
:1042F000039804B07047000080B584B00390039821
:104300000190002102918170C1704430FFF7DAFF03
:1043100001980299A0F8861004B080BD81B0009089
:104320000098002101604160816001624162816208
:1043300001B0704780B582B04FF0FF40019040F26D
:104340002850C2F20000006801A904220A23FEF7E7
:10435000C7FF38B1FFE740F20051C2F2000101206F
:104360000870FFE702B080BD84B003908DF80B1099
:104370000398009040F27A00C2F2000000780146F3
:104380000191042800F292800199DFE801F0031006
:104390002E5468009DF80B00FA2807D1FFE740F281
:1043A0007A01C2F2000101200870FFE77FE09DF86A
:1043B0000B00002811D4FFE79DF80B0007280CDC48
:1043C000FFE700999DF80B0081F8300040F27A0178
:1043D000C2F200010220087006E040F27A01C2F247
:1043E000000100200870FFE761E0009890F850009D
:1043F00003280EDCFFE700999DF80B0091F8502090
:104400000A4482F8310091F85000013081F85000E0
:10441000FFE7009890F8500004280BD1FFE70099BF
:10442000002081F8500040F27A01C2F2000103201E
:104430000870FFE73BE09DF80B00DD2807D1FFE7A0
:1044400040F27A01C2F200010420087006E040F256
:104450007A01C2F2000100200870FFE727E09DF812
:104460000B00FF281AD1FFE7009890F830000728CA
:1044700009D0FFE7009810F8301F00EB8101D0F859
:104480000100886003E0009900208863FFE740F2A4
:104490007A01C2F200010020087006E040F27A01C1
:1044A000C2F2000100200870FFE700E0FFE704B05F
:1044B0007047000080B584B002900191029800908E
:1044C00003900199FFF7AAFE009848F2E401C0F6B4
:1044D0000001083140F8301BFFF760FE40F2245025
:1044E000C2F200000078092807DBFFE740F2005124
:1044F000C2F20001012008702CE040F22450C2F208
:104500000000007880B1FFE7019840F22851C2F224
:1045100000010968884207D0FFE740F20051C2F26B
:1045200000010120087015E00098019940F228521E
:10453000C2F20002116040F22451C2F200010B7875
:1045400040F20452C2F2000242F82300087801301F
:104550000870FFE7039804B080BD000081B00090B0
:104560000099087C00F001000875487C00F001000B
:104570004875887C00F001008875C87C00F0010057
:10458000C875087E00F001000877487E00F0010041
:104590004877887E00F001008877C87E00F001002F
:1045A000C87791F8200000F0010081F8220091F80E
:1045B000210000F0010081F8230091F8240000F0B0
:1045C000010081F8260091F8250000F0010081F833
:1045D000270091F8280000F0010081F82C0091F8E4
:1045E000290000F0010081F82D0091F82A0000F068
:1045F000010081F82E0091F82B0000F0010081F8F5
:104600002F0001B07047000082B001900198009027
:10461000008E47F6191188420BDBFFE70098008EE9
:1046200048F6B701884204DCFFE700990020C86320
:104630000EE00098018E00EE101AB8EE400A9FEDD1
:10464000371A30EE410A80EE010A80ED0F0AFFE7CB
:104650000098408E47F6191188420BDBFFE700985F
:10466000408E48F6B701884204DCFFE7009900203D
:1046700008640EE00098418E00EE101AB8EE400A71
:104680009FED261A31EE400A80EE010A80ED100AF5
:10469000FFE70098808E47F6191188420BDBFFE791
:1046A0000098808E48F6B701884204DCFFE7009945
:1046B000002048640EE00098818E00EE101AB8EEDB
:1046C000400A9FED161A31EE400A80EE010A80ED95
:1046D000110AFFE70098C08E47F6191188420BDBDC
:1046E000FFE70098C08E48F6B701884204DCFFE778
:1046F0000099002088640EE00098C18E00EE101A28
:10470000B8EE400A9FED051A31EE400A80EE010A2C
:1047100080ED120AFFE702B0704700BF00000047BB
:1047200084B003908DF80B100192039800909DF8CF
:104730000B001C2840F08F80FFE70099019800785B
:10474000002818BF0120087401984078002818BF7D
:104750000120487401988078002818BF01208874CF
:104760000198C078002818BF0120C874019800790A
:10477000002818BF0120087601984079002818BF4A
:104780000120487601988079002818BF012088769A
:104790000198C079002818BF0120C8760198007AD6
:1047A000002818BF012081F820000198407A0028D5
:1047B00018BF012081F821000198807A002818BFD5
:1047C000012081F824000198C07A002818BF012038
:1047D00081F825000198007B002818BF012081F88E
:1047E00028000198407B002818BF012081F829008B
:1047F0000198807B002818BF012081F82A000198C9
:10480000C07B002818BF012081F82B000198027C92
:10481000407C40EA022008860198827CC07C40EA05
:10482000022048860198027D407D40EA0220888669
:104830000198827DC07D40EA0220C8860198027EF0
:10484000407E40EA022008870198827EC07E40EACE
:1048500002204887FFE704B07047000080B584B0AD
:1048600003908DF80B100398009090F8EC0001462F
:104870000191082800F2B6800199DFE801F00514E3
:1048800028313D555E677B009DF80B00FC2809D15F
:10489000FFE70099012081F8EC009DF80B0081F8FA
:1048A0006000FFE7A3E09DF80B00FB2809D1FFE7BC
:1048B0000099022081F8EC009DF80B0081F861005E
:1048C00004E00099002081F8EC00FFE78FE00099F8
:1048D0009DF80B0081F86200032081F8EC0086E06F
:1048E00000999DF80B0081F86300002081F85C00BE
:1048F000042081F8EC007AE000999DF80B0091F813
:104900005C30CA18013381F85C3082F8640091F899
:104910005C0091F86310884205DBFFE700990520F1
:1049200081F8EC00FFE762E000999DF80B0081F848
:10493000E800062081F8EC0059E000999DF80B0092
:1049400081F8E900072081F8EC0050E09DF80B00A9
:10495000FD2809D1FFE70099082081F8EC009DF8B7
:104960000B0081F8E40004E00099002081F8EC00DD
:10497000FFE73CE09DF80B00FE282ED1FFE70099F1
:104980009DF80B0081F8E50000208DF80A00FFE794
:1049900000999DF80A0091F8631088420FDAFFE74A
:1049A00000989DF80A10014491F8640081F8A40071
:1049B000FFE79DF80A0001308DF80A00E8E700984B
:1049C000FFF7CCFD009890F8631000F1A402FFF708
:1049D000A7FE0098FFF718FEFFE70099002081F876
:1049E000EC0004E00099002081F8EC00FFE704B03F
:1049F00080BD000080B584B00390029103980190BF
:104A00000299FFF70BFC019948F2F000C0F6000094
:104A100000F10802084640F8602B10310091FFF7C2
:104A20006BFC00982C21FBF7FCFC019804B080BDC6
:104A300084B003900291019203990091019800685B
:104A4000896B01F50071884226D1FFE70099029831
:104A50000278407840EA0220A1F89000029882781B
:104A6000C07840EA0220A1F89200029802794079C9
:104A700040EA0220A1F894000298807981F896001B
:104A8000B1F9920000EE100AB8EEC00A81ED1C0ADE
:104A9000012081F8A200FFE704B0704783B00290C4
:104AA00002980090806BC0B3FFE70098806B0428E9
:104AB00033D8FFE70098826B6FF0010101EB4201F0
:104AC0008DF80710406840F26461C2F2000188422C
:104AD00011D1FFE7009890F8A1109DF8073040F23F
:104AE0003152C2F20002D15490F8A0009DF8071094
:104AF0001144487010E0009890F8A1109DF807301C
:104B000040F24152C2F20002D15490F8A0009DF848
:104B1000071011444870FFE73DE00098806B0528BE
:104B200038D3FFE70098806B082833D8FFE7009858
:104B3000826B6FF0090101EB42018DF806104068AD
:104B400040F26461C2F20001884211D1FFE700988F
:104B500090F8A1109DF8063040F23952C2F20002DE
:104B6000D15490F8A0009DF806101144487010E050
:104B7000009890F8A1109DF8063040F24952C2F218
:104B80000002D15490F8A0009DF80610114448701E
:104B9000FFE7FFE7FFE703B07047000080B584B090
:104BA00003900398019090ED1B0A90ED1C1A30EED3
:104BB000410A80ED1D0A90ED181A90ED1D0AB1EE24
:104BC000411AB4EE410AF1EE10FA0CDDFFE701984C
:104BD00090ED181A90ED1D0AB4EE410AF1EE10FAAC
:104BE00001DAFFE75FE0019890ED150A90ED1D1ADC
:104BF00020EE010A80ED200A90ED191A90ED1D0AB1
:104C0000B4EE410AF1EE10FA0DDCFFE7019890EDE9
:104C1000191A90ED1D0AB1EE411AB4EE410AF1EEF7
:104C200010FA04DAFFE701990020C86711E0019843
:104C300090ED1D1A90ED1F0A30EE010A80ED1F0A5B
:104C400090ED160A90ED1F1A20EE010A80ED210A60
:104C5000FFE7019890ED170A90ED1D1A90ED1E2ABE
:104C600031EE421A20EE010A80ED220A416F81677F
:104C700090ED200A90ED212A90ED221A30EE020AE2
:104C800030EE010A8DED020A9DED020AD0ED1A0AFE
:104C900000F0A4F8019880ED230A00F017F80198BD
:104CA000FFF7FCFEFFE704B080BD000082B001907A
:104CB0008DED000A01989DED000AB3EE031A20EE77
:104CC000010A80ED1B0A02B07047000081B000901D
:104CD000009991ED230ABDEEC00A10EE100AA1F86A
:104CE000A00001B07047000080B58AB0099008911B
:104CF0000898B0F5007F0DD0FFE7089840F2FF114B
:104D0000884207D0FFE740F23051C2F20001012093
:104D10000870FFE700200190089902910390059028
:104D20000490082106918DF81C000898B0F5007FCA
:104D300025D1FFE7099840F26461C2F20001884280
:104D40000AD1FFE7099840F23152C2F2000202A9EB
:104D500001ABFBF765FCFFE7099840F28C61C2F2FA
:104D6000000188420AD1FFE7099840F24152C2F29D
:104D7000000202A901ABFBF753FCFFE72BE0089808
:104D800040F2FF11884225D1FFE7099840F26461A3
:104D9000C2F2000188420AD1FFE7099840F2395275
:104DA000C2F2000202A901ABFBF73AFCFFE7099847
:104DB00040F28C61C2F2000188420AD1FFE70998F3
:104DC00040F24952C2F2000202A901ABFBF728FCF3
:104DD000FFE7FFE7FFE70AB080BD000083B0029065
:104DE0008DED010ACDED000A9DED010A9DED001A41
:104DF000B4EE410AF1EE10FA03DDFFE700980190EE
:104E000013E09DED010A9DED001AB1EE411AB4EEDA
:104E1000410AF1EE10FA07DAFFE79DED000AB1EE64
:104E2000400A8DED010AFFE7FFE79DED010A03B09F
:104E30007047000087B006908DED050ACDED040A9D
:104E40008DED031ACDED021A8DED012ACDED002A6C
:104E5000069905984865049888650398C86502987E
:104E60000866009888660198486607B07047000099
:104E700080B586B004900391029204980190059049
:104E80000399029A00F0E8F8019848F2FC01C0F694
:104E90000001083140F8541BFFF740FA0298092836
:104EA00007D3FFE740F23051C2F200010120087041
:104EB00038E0039840F26461C2F20001884214D1E4
:104EC000FFE740F22C50C2F200000188013101805E
:104ED000B0F90000082807DBFFE740F23051C2F2CA
:104EE0000001012008701DE01CE0039840F28C6175
:104EF000C2F20001884214D1FFE740F22E50C2F204
:104F00000000018801310180B0F90000082807DBAA
:104F1000FFE740F23051C2F200010120087001E0C9
:104F2000FFE7FFE7059806B080BD000085B003905D
:104F3000039900910491002008600874886101F1D0
:104F40001C00683101910290FFE70299019A00204C
:104F500041F8040B084691420290F6D1FFE7009910
:104F60004FF40070C866049805B0704783B0029093
:104F70000191009203B0704781B0009001B070477A
:104F800080B58AB001210791002006900090019021
:104F90000290039005900891049040F26460C2F280
:104FA00000006946FBF7E8FB18B1FFE7FBF70AFBD7
:104FB000FFE740F26460C2F20000FCF729FA18B182
:104FC000FFE7FBF7FFFAFFE740F26460C2F2000080
:104FD0000221FBF7FBFA18B1FFE7FBF7F3FAFFE753
:104FE0000AB080BD80B58AB00122079200210691E7
:104FF00000910191029103910E2005900892049175
:10500000099040F28C60C2F200006946FBF7B4FBE5
:1050100018B1FFE7FBF7D6FAFFE740F28C60C2F267
:105020000000FCF7F5F918B1FFE7FBF7CBFAFFE753
:1050300040F28C60C2F200000221FBF7C7FA18B1FF
:10504000FFE7FBF7BFFAFFE70AB080BD80B5FFF7C7
:1050500097FFFFF7C7FF80BD8AB0089007910692BF
:1050600008990291099148F20C10C0F6000008302E
:1050700008600798486006988863002081F83C0023
:1050800001F13D00443103910490FFE70499039A34
:10509000002001F8010B084691420490F6D1FFE789
:1050A0000299002081F8440001F145004C31009143
:1050B0000190FFE70199009A002001F8010B0846D2
:1050C00091420190F6D1FFE702980021C164016589
:1050D000406840F26461C2F20001884251D1FFE7AA
:1050E00040F2A450C2F200000078092848DCFFE733
:1050F00000208DF81700FFE79DF8170040F2A4513B
:10510000C2F20001097888421FDCFFE79DF8171002
:1051100040F25450C2F2000050F82100806B069912
:1051200088420AD0FFE79DF8171040F25450C2F2AF
:10513000000050F8210008B9FFE706E0FFE79DF8FE
:10514000170001308DF81700D6E79DF8170040F2E0
:10515000A451C2F200010978884210D1FFE70298F9
:1051600040F2A451C2F200010B7840F25452C2F254
:10517000000242F82300087801300870FFE7FFE7DB
:1051800059E0079840F28C61C2F20001884251D187
:10519000FFE740F2A550C2F200000078092848DC81
:1051A000FFE700208DF81600FFE79DF8160040F29B
:1051B000A551C2F20001097888421FDCFFE79DF883
:1051C000161040F27C50C2F2000050F82100806BB3
:1051D000069988420AD0FFE79DF8161040F27C50ED
:1051E000C2F2000050F8210008B9FFE706E0FFE72F
:1051F0009DF8160001308DF81600D6E79DF81600D0
:1052000040F2A551C2F200010978884210D1FFE7AF
:10521000029840F2A551C2F200010B7840F27C5294
:10522000C2F2000242F82300087801300870FFE75C
:10523000FFE7FFE7FFE709980AB0704781B08DF8F4
:1052400003009DF9030000280ED4FFE79DF9031029
:1052500001F01F02012090404A094EF20011CEF2E7
:10526000000141F82200FFE701B070474EF60C50F4
:10527000CEF200000068C0F30220704782B08DF8C3
:10528000070000919DF9070000280AD4FFE7009865
:1052900000019DF907104EF20042CEF20002885440
:1052A0000BE0009800019DF8071001F00F014EF689
:1052B0001452CEF200028854FFE702B0704700009B
:1052C00082B08DF8070000919DF9070000280AD4EC
:1052D000FFE7009800019DF907104EF20042CEF260
:1052E000000288540BE0009800019DF8071001F0BF
:1052F0000F014EF61452CEF200028854FFE702B0BE
:105300007047000083B00290029800F00700009000
:105310004EF60C51CEF200010868019001984FF64C
:10532000FF02104001900198009A40EA02200022FA
:10533000C0F2FA52104301900198086003B0704720
:1053400080B540F2C050C2F2000040F26461C2F287
:1053500000010122FFF78CFD80BD000080B582B006
:1053600040F27C00C2F200000190FFE7019800903B
:10537000FFF7DCFD009800F17001084640F27C0266
:10538000C2F2000202F58C6291420190EED1FFE779
:1053900002B080BD80B545F26000C2F2000040F26C
:1053A0004471C2F20001FFF785F880BD80B545F277
:1053B000C010C2F2000040F2FC61C2F20001FFF72F
:1053C00019FB80BD80B5FFF741FE40F2C050C2F22C
:1053D0000000B2EE040A9FED0C2ADFED0C2AF0EE7D
:1053E000420AB0EE421AF0EE421AFFF723FD45F2F0
:1053F0006000C2F20000FEF7DFFE45F2C010C2F20C
:105400000000FEF7D9FE80BD0000000000008046CD
:1054100080B582B000200190FCF7E4FAFEF758FA5C
:10542000FEF772F8FDF7FAFFFEF720F8FEF716F91F
:10543000FEF736F9FEF7F2F8FEF7D0F800F020F8A4
:10544000FEF73CF800F040F8FFE7FEE780B584B0D7
:105450000290EFF305800390039820B1FFE76FF00F
:105460000500019009E000200190029820B1FFE7BB
:10547000029801F0C1FBFFE7FFE7019804B080BD8F
:1054800082B0EFF305800190019820B1FFE76FF043
:105490000500009014E040F27400C2F200000068C1
:1054A00048B9FFE740F27401C2F200010120086030
:1054B0000020009003E04FF0FF300090FFE7FFE78F
:1054C000009802B07047000080B582B0EFF305800D
:1054D0000190019820B1FFE76FF00500009019E0FE
:1054E00040F27400C2F20000006801280DD1FFE70D
:1054F000FEF780F940F27401C2F200010220086058
:1055000001F018FC0020009003E04FF0FF30009005
:10551000FFE7FFE7009802B080BD0000B0B58EB095
:105520000B900A91099200200690EFF305800D90F0
:105530000D98002840F09980FFE70B98002800F0B4
:105540009480FFE7802007901820059000200890A5
:105550004FF0FF300490099800284DD0FFE70998DC
:10556000006820B1FFE7099800680890FFE70998F4
:10557000806920B1FFE7099880690590FFE70598E9
:1055800048B1FFE70598382805D8FFE70998007962
:10559000C00718B1FFE700200C9069E00998406946
:1055A00028B1FFE70998406980080790FFE709984C
:1055B000806880B1FFE70998C0685C280BD3FFE7DB
:1055C0000998006938B1FFE70998406918B1FFE709
:1055D000012004900FE00998806858B9FFE7099806
:1055E000C06838B9FFE70998006918B9FFE70020DB
:1055F0000490FFE7FFE702E000200490FFE7049833
:10560000012817D1FFE70B980899079A0A9BDDF844
:1056100014C0DDF824E0DEF80850DEF81040EE4655
:10562000CEF80850CEF80440CEF800C002F06EF973
:10563000069019E00498B0B9FFE70B980899BDF8F7
:105640001C200A9BDDF814C0EE4606ACCEF80440E0
:10565000CEF800C002F00AF9012803D0FFE70020CD
:105660000690FFE7FFE7FFE7FFE706980C90FFE7EC
:105670000C980EB0B0BD000080B584B003900291CC
:1056800045F2B010C2F200000068009040F6101021
:10569000C2F200000068043001F066F808B9FFE7C4
:1056A00000E0FFE70398013080B9FFE7029868B196
:1056B000FFE740F61010C2F200000068011D45F23D
:1056C0008810C2F2000001F0F5F83DE0009803995F
:1056D00008440190019840F61011C2F200010968D7
:1056E00048600198009988420ED2FFE740F62010EA
:1056F000C2F20000006840F61011C2F20001096811
:10570000043101F0A1F81EE040F61810C2F20000CA
:10571000006840F61011C2F200010968043101F07E
:1057200093F8019845F21411C2F200010968884209
:1057300007D2FFE7019845F21411C2F20001086098
:1057400000E0FFE7FFE7FFE704B080BD80B582B06F
:10575000019001F0D7F844F69411C2F200010868F4
:105760000130086040F61010C2F20000006898B9DD
:10577000FFE7019840F61011C2F20001086044F6FC
:105780009410C2F200000068012803D1FFE700F086
:10579000F7FA00E0FFE71CE045F27C10C2F20000DF
:1057A0000068A0B9FFE740F61010C2F200000068E0
:1057B000C06A0199C96A884207D8FFE7019840F694
:1057C0001011C2F20001086000E0FFE700E0FFE70F
:1057D000FFE744F6A010C2F2000001680131016049
:1057E0000068019948640198C06A44F6A411C2F2A5
:1057F00000010968884208D9FFE70198C06A44F6A9
:10580000A411C2F200010860FFE70199C86A00EB29
:10581000800240F62810C2F2000000EB8200043142
:1058200001F048F801F09AF845F27C10C2F200004D
:105830000068C8B1FFE740F61010C2F2000000682F
:10584000C06A0199C96A88420CD2FFE74EF604513A
:10585000CEF200014FF080500860BFF34F8FBFF3CE
:105860006F8F00E0FFE700E0FFE702B080BD0000BF
:1058700080B584B001F046F845F2B410C2F20000E1
:105880000068002840D1FFE745F2B400C2F20000F2
:10589000029000F0B9FF45F2C800C2F20000039088
:1058A00000F0B2FF0299039840F61412C2F200020F
:1058B000116040F62411C2F2000108606946002020
:1058C000086040F61C02C2F2000240F6BC03C2F2BD
:1058D00000030A20102101F0D3FB014645F2B41069
:1058E000C2F200000160006860B1FFE745F2B41049
:1058F000C2F20000006848F28511C0F6000101F014
:105900001FF900E0FFE700E0FFE701F027F804B02F
:1059100080BD000080B582B0FFE744F69810C2F267
:105920000000006808B3FFE700F0ECFF45F29C10B0
:10593000C2F20000C068C06801900198043000F015
:1059400013FF44F69411C2F20001086801380860A0
:1059500044F69811C2F2000108680138086000F0AE
:10596000FDFF019800F08CF8D7E702B080BD000081
:1059700080B582B0019000910198006CB8B1FFE74A
:105980000199C8680A6C1044C86001988168C068B1
:10599000884204D3FFE701990868C86000E0FFE788
:1059A0000098019AD168126CFAF7EEFCFFE702B09A
:1059B00080BD000080B586B0059004910392002060
:1059C00002900598806B01900598006C78B9FFE70C
:1059D0000598006848B9FFE70598806802F006F965
:1059E000029005990020886000E0FFE741E00398FD
:1059F000B8B9FFE7059A04995068126CFAF7C4FC2D
:105A0000059948680A6C1044486005994868896897
:105A1000884204D3FFE705990868486000E0FFE783
:105A200026E0059A0499D068126CFAF7ADFC059946
:105A3000C8680A6C801AC86005980168C068884206
:105A400006D2FFE7059988680A6C801AC86000E0F2
:105A5000FFE70398022809D1FFE7019820B1FFE78B
:105A600001980138019000E0FFE700E0FFE7FFE761
:105A7000FFE70198013005998863029806B080BD60
:105A800080B582B00090009890F8590040B9FFE7C7
:105A90000098006B00F088FF009800F085FF1CE084
:105AA000009890F85900012804D1FFE7009800F011
:105AB0007BFF11E0009890F8590002280BD0FFE717
:105AC0004FF0500080F31188BFF36F8FBFF34F8FFB
:105AD0000190FFE7FEE7FFE7FFE702B080BD0000AF
