:020000040800F2
:100000009862002059020008F53E0008B53B000840
:10001000F13E00089D05000879520008000000002C
:10002000000000000000000000000000A1440008E3
:100030008907000800000000C13F0008B147000820
:1000400073020008730200087302000873020008BC
:1000500073020008730200087302000873020008AC
:10006000730200087302000873020008730200089C
:10007000730200087302000873020008730200088C
:10008000730200087302000873020008730200087C
:10009000A1050008B10500087302000873020008FA
:1000A000730200087302000873020008730200085C
:1000B000730200087302000873020008730200084C
:1000C000730200087302000873020008730200083C
:1000D00073020008E951000849520008595200080B
:1000E000730200087302000873020008730200081C
:1000F000730200087302000873020008730200080C
:1001000073020008730200087302000873020008FB
:100110007302000873020008A14800087302000877
:100120007302000873020008E1050008730200086A
:1001300073020008730200087302000873020008CB
:10014000C1050008D1050008730200087302000809
:100150007302000873020008730200086952000865
:10016000730200087302000873020008730200089B
:100170007302000873020008730200080000000008
:10018000730200087302000800F002F800F054F84F
:1001900014A696E8000CB244B344DA4501D100F04D
:1001A0004BF8BAE80F000FA696E83000A5EB04055F
:1001B00004EB0607AAEB0704A7F101074FEA1515A0
:1001C0004FEA3414A4F10104AC4201D300F034F836
:1001D00013F0010F18BFFB1A43F0010300F001F800
:1001E000DBE7184798B50000B8B50000103A24BF07
:1001F00078C878C1FAD8520724BF30C830C144BF8C
:1002000004680C6070470000704700000023002461
:1002100000250026103A28BF78C1FBD8520728BF16
:1002200030C148BF0B6070471FB50BF058F900F0A4
:1002300023F91FBD10B510BD00F07AF91146FFF784
:10024000F3FF07F03FF800F098F903B4FFF7F2FF6F
:1002500003BC00F09BF900000948804709480047AB
:10026000FEE7FEE7FEE7FEE7FEE7FEE7FEE7FEE766
:10027000FEE7FEE704480549054A064B70470000C3
:100280008D48000889010008985C002098620020D1
:10029000985E0020985E002053EA020C00F069800E
:1002A0002DE9F04B4FF00006002B1FBFB3FA83F58A
:1002B00003FA05F424FA05F65E4012BF1643B2FABB
:1002C00082F502FA05F4C5F120051EBF22FA05FCED
:1002D00044EA0C04203556EA044C4FEA144418BF93
:1002E000641C4FF000084FF00009904271EB030CC2
:1002F00039D3002919BFB1FA81F701FA07F6B0FA2C
:1003000080F700FA07F6C7F120071EBF20FA07FCA6
:1003100046EA0C062037B6FBF4FCA7EB0507103FB6
:1003200007F01F0BCBF120062CFA06F60CFA0BFB9C
:1003300044BFB3460026202FA4BF5E464FF0000BFB
:100340005BEA060C08BF4FF0010B19EB0B0948EBF9
:100350000608ABFB027C06FB02CC0BFB03CCC01BEC
:1003600071EB0C01C1E70B46024641464846BDE829
:10037000F08B13B5084318BF4FF0FF300146AFF3C1
:100380000080BDE81C407047032A40F2308010F026
:10039000030C00F0158011F8013BBCF1020F624420
:1003A00098BF11F801CB00F8013B38BF11F8013BB1
:1003B000A2F1040298BF00F801CB38BF00F8013B5E
:1003C00011F0030300F07980083AC0F0088051F87A
:1003D000043B083A51F804CBA0E80810F5E7121DD9
:1003E0005CBF51F8043B40F8043BAFF30080D207F8
:1003F00024BF11F8013B11F801CB48BF11F8012BC4
:1004000024BF00F8013B00F801CB48BF00F8012BE6
:10041000704702F0FF0343EA032242EA024200F07F
:1004200002B84FF0000200B51346944696462039B4
:1004300022BFA0E80C50A0E80C50B1F12001BFF49D
:10044000F7AF090728BFA0E80C5048BF0CC05DF803
:1004500004EB890028BF40F8042B08BF704748BF51
:1004600020F8022B11F0804F18BF00F8012B7047C5
:10047000704770477047000008487CB5784400908A
:1004800007487844009C0546019004E02046016836
:1004900008448047241DAC42F8D17CBD1CB3000049
:1004A00026B3000010B500F03BF8006810BD10B591
:1004B000044600F035F8046010BD10B5203AC0F0D5
:1004C0000B80B1E81850A0E81850B1E81850A0E827
:1004D0001850203ABFF4F5AF5FEA027C24BFB1E8C0
:1004E0001850A0E8185044BF18C918C0BDE8104003
:1004F0005FEA827C24BF51F8043B40F8043B08BF0C
:100500007047D20728BF31F8023B48BF11F8012BD2
:1005100028BF20F8023B48BF00F8012B70470000BD
:1005200000487047600000200048704760000020CD
:100530007546FFF7F9FFAE4605006946534620F0C1
:100540000700854618B020B5FFF794FEBDE82040AF
:100550004FF000064FF000074FF000084FF0000B7F
:10056000AC46ACE8C009ACE8C009ACE8C009ACE8EE
:10057000C00921F007018D46704710B50446AFF35E
:1005800000802046BDE81040FFF75FBE01491820FB
:10059000ABBEFEE72600020070470000FFE7FEE763
:1005A00080B540F6B040C2F2000000F0FDFA80BD18
:1005B00080B540F6B040C2F2000000F0F5FA80BD10
:1005C00080B540F6D840C2F2000000F0EDFA80BDE0
:1005D00080B540F6D840C2F2000000F0E5FA80BDD8
:1005E00080B540F60050C2F2000001F043F880BD33
:1005F00082B001900198007810384AF6AB21CAF613
:10060000AA21A0FB01100009009000994BF23C5078
:10061000C0F60000405C0199C8650098042807D323
:10062000FFE701990868042262F30900886506E083
:100630000199086840F2FF3290438865FFE701980E
:10064000806D02B07047000086B0059000208DF8E4
:1006500013000598806A03900598806910BBFFE736
:100660000398029003281BD80299DFE801F0020DDD
:100670000218059890F82F00C00720B1FFE701206D
:100680008DF81300FFE70CE00598C06AB0F1C07F59
:1006900004D1FFE701208DF81300FFE701E000E03F
:1006A000FFE745E005988069B0F5005F25D1FFE7D9
:1006B0000398019003281ED80199DFE801F0020693
:1006C000021101208DF8130016E0059890F82F0014
:1006D000C00720B1FFE701208DF81300FFE70BE012
:1006E0000598C06AB0F1C07F04D1FFE701208DF802
:1006F0001300FFE700E0FFE719E0039800900328EC
:1007000004D3FFE70098032804D00EE001208DF801
:1007100013000BE0059890F82F00C00720B1FFE709
:1007200001208DF81300FFE700E0FFE7FFE7FFE798
:100730009DF8130006B0704784B0039002910192B7
:10074000009303980168086820F4802008600098EE
:1007500003990968486003988068402809D1FFE739
:100760000198039909688860029803990968C8602C
:1007700008E002980399096888600198039909685C
:10078000C860FFE704B070477047000072B6FFE72B
:10079000FEE7000084B002900191029890F82000DA
:1007A0008DF803009DF80300012805D0FFE79DF8B0
:1007B000030002280AD1FFE7019A029801684869FC
:1007C0001043486100208DF80F0008E00299486A44
:1007D00040F48020486201208DF80F00FFE79DF86B
:1007E0000F0004B07047000086B004900391049895
:1007F00000680190049890F820008DF803009DF89F
:100800000300012806D0FFE79DF80300022840F00E
:10081000B080FFE746F20040C4F200000190019969
:10082000D1F8000240F00100C1F800020199D1F8AE
:10083000000220F47C50C1F800020398426A01993A
:10084000D1F8000240EA0220C1F800020398406992
:1008500000F01F01012088400290029A0199D1F80E
:100860001C029043C1F81C020398C069F0B9FFE76D
:10087000029A0199D1F80C029043C1F80C02039A34
:100880009088D168526940EA0140019901EBC201A8
:10089000C1F84002039A10889168526940EA014009
:1008A000019901EBC201C1F84402FFE70398C06956
:1008B00001281ED1FFE7029A0199D1F80C021043DA
:1008C000C1F80C02039A90881168526940EA01400D
:1008D000019901EBC201C1F84002039A9089916825
:1008E000526940EA0140019901EBC201C1F844029A
:1008F000FFE70398806940B9FFE7029A0199D1F8B0
:1009000004029043C1F8040207E0029A0199D1F869
:1009100004021043C1F80402FFE70398006940B9DC
:10092000FFE7029A0199D1F814029043C1F814022A
:1009300007E0029A0199D1F814021043C1F8140299
:10094000FFE70398006A012808D1FFE7029A01999E
:10095000D1F81C021043C1F81C02FFE70199D1F83D
:10096000000220F00100C1F8000200208DF81700FD
:1009700008E00499486A40F48020486201208DF81C
:100980001700FFE79DF8170006B0704781B0009090
:1009900001B0704786B004900391029201930498CD
:1009A00090F820008DF803009DF80300012806D080
:1009B000FFE79DF80300022840F0E880FFE7039876
:1009C00080B9FFE704980068C068800748B9FFE76E
:1009D0000499486A40F40010486201208DF817001D
:1009E000DDE00FE0049800680069800748B9FFE780
:1009F0000499486A40F40010486201208DF81700FD
:100A0000CDE0FFE704980068039900EB0110D0F8EF
:100A1000B00100F00400029988600298806858B91B
:100A2000FFE704980068039900EB0110D0F8B001CB
:100A3000400D029908600AE004980068039900EBF1
:100A40000110D0F8B001C00802994860FFE704988F
:100A50000068039900EB0110D0F8B00100F002002B
:100A60000299C86004980068039900EB0110D0F85F
:100A7000B40100F00F00082804D3FFE70299082012
:100A800008610BE004980068039900EB0110D0F8AE
:100A9000B40100F00F0002990861FFE704980068B4
:100AA000039900EB0110D0F8B40180B2000A02995A
:100AB000886104980068039900EB0110D0F8B40134
:100AC000000C0299486104980068039900EB01103A
:100AD000D0F8B8010199087004980068039900EBF8
:100AE0000110D0F8B801000A019948700498006814
:100AF000039900EB0110D0F8B801000C019988703F
:100B000004980068039900EB0110D0F8B801000EBA
:100B10000199C87004980068039900EB0110D0F89F
:100B2000BC010199087104980068039900EB011059
:100B3000D0F8BC01000A0199487104980068039933
:100B400000EB0110D0F8BC01000C019988710498E9
:100B50000068039900EB0110D0F8BC01000E019968
:100B6000C871039838B9FFE704980168C86840F075
:100B70002000C86006E004980168086940F0200081
:100B80000861FFE700208DF8170008E00499486A23
:100B900040F48020486201208DF81700FFE79DF89F
:100BA000170006B07047000080B58AB00990002099
:100BB00008900998006840690790099800684068A3
:100BC0000690099800688068059009980068C068D8
:100BD000049009980068006903900998006880698A
:100BE00002909DF81C00C007002800F09480FFE7E9
:100BF0009DF81400C00758B3FFE709980168012069
:100C000088609DF814008007002804D5FFE7099844
:100C100000F080FC1BE09DF814004007002805D57B
:100C2000FFE7089840F4006008900FE09DF814007A
:100C30000007002805D5FFE7089840F48050089089
:100C400003E0099800F062FCFFE7FFE7FFE7FFE73A
:100C50009DF81500C00760B3FFE7099801684FF4DD
:100C6000807088609DF815008007002804D5FFE794
:100C7000099800F057FC1BE09DF81500400700287C
:100C800005D5FFE7089840F4005008900FE09DF864
:100C900015000007002805D5FFE7089840F48040BC
:100CA000089003E0099800F039FCFFE7FFE7FFE751
:100CB000FFE79DF81600C00760B3FFE709980168D9
:100CC0004FF4803088609DF816008007002804D516
:100CD000FFE7099800F02EFC1BE09DF81600400786
:100CE000002805D5FFE7089840F4004008900FE081
:100CF0009DF816000007002805D5FFE7089840F486
:100D00008030089003E0099800F010FCFFE7FFE74F
:100D1000FFE7FFE7FFE79DF81C000007002810D55C
:100D2000FFE79DF81000C006002809D5FFE70898E6
:100D300040F400700890099801681020C860FFE72F
:100D4000FFE79DF81C00400700280FD5FFE79DF83E
:100D500010000007002808D5FFE70998016808205F
:100D6000C860099800F0E2FAFFE7FFE79DF81C0071
:100D7000800700280BD5FFE709980068C068800746
:100D800020B1FFE7099800F0D5FAFFE7FFE79DF8EB
:100D90001C004006002810D5FFE79DF80C00C00697
:100DA000002809D5FFE7089840F48060089009986A
:100DB000016810200861FFE7FFE79DF81C0080062E
:100DC00000280FD5FFE79DF80C000007002808D584
:100DD000FFE70998016808200861099800F044FBC2
:100DE000FFE7FFE79DF81C00C00600280BD5FFE7D2
:100DF000099800680069800720B1FFE7099800F0B2
:100E000037FBFFE7FFE79DF81E00800700280FD59E
:100E1000FFE79DF81800C006002808D5FFE70998ED
:100E2000016810204860099800F026FBFFE7FFE703
:100E30009DF81E00C00778B1FFE79DF81800000775
:100E4000002808D5FFE7099801680820486009983C
:100E500000F074FBFFE7FFE79DF81D000006002887
:100E600040F18D80FFE79DF818004007002840F111
:100E70008180FFE79DF81D00C00750B1FFE79DF896
:100E80000800C00728B1FFE7089840F0010008906B
:100E9000FFE79DF81D00800700280BD5FFE79DF8B0
:100EA00008008007002805D5FFE7089840F00200F9
:100EB0000890FFE79DF81D00400700280BD5FFE7CD
:100EC0009DF808004007002805D5FFE7089840F086
:100ED00004000890FFE79DF81D000007002848D592
:100EE000FFE79DF8080010F0700F42D0FFE702986E
:100EF00000F0700001460191102814D0FFE701981E
:100F0000202815D0FFE70198302816D0FFE7019878
:100F1000402817D0FFE70198502818D0FFE7019824
:100F2000602819D01DE0089840F00800089019E0EA
:100F3000089840F01000089014E0089840F0200055
:100F400008900FE0089840F0400008900AE00898E8
:100F500040F08000089005E0089840F48070089008
:100F600000E0FFE709980168886920F07000886157
:100F7000FFE7FFE70998016804204860FFE7089849
:100F800048B1FFE7089A0999486A104348620998EE
:100F9000FFF7FCFCFFE70AB080BD000080B584B01D
:100FA0000290029820B9FFE701208DF80F00E0E0E1
:100FB000029890F8200020B9FFE7029800F0DEF8D0
:100FC000FFE702980168086840F00100086000F03F
:100FD000D7FF0190FFE7029800684068C007A8B9F2
:100FE000FFE700F0CDFF0199401A0B280DD3FFE772
:100FF0000299486A40F4003048620299052081F85D
:10100000200001208DF80F00B3E0E4E702980168AA
:10101000086820F00200086000F0B2FF0190FFE7CE
:101020000298006840688007002815D5FFE700F0A7
:10103000A7FF0199401A0B280DD3FFE70299486AD0
:1010400040F4003048620299052081F82000012018
:101050008DF80F008DE0E3E70298007E012807D1AC
:10106000FFE702980168086840F08000086006E029
:1010700002980168086820F080000860FFE7029885
:10108000407E012807D1FFE702980168086840F018
:101090004000086006E002980168086820F04000FF
:1010A0000860FFE70298807E012807D1FFE70298D9
:1010B0000168086840F02000086006E002980168B6
:1010C000086820F020000860FFE70298C07E012831
:1010D00007D1FFE702980168086820F01000086057
:1010E00006E002980168086840F010000860FFE719
:1010F0000298007F012807D1FFE70298016808687D
:1011000040F00800086006E002980168086820F0D6
:1011100008000860FFE70298407F012807D1FFE739
:1011200002980168086840F00400086006E0029830
:101130000168086820F004000860FFE7029B196856
:101140005A689868D3F80CC040EA0C00D3F810C075
:1011500040EA0C005B691843013A1043C8610299E8
:1011600000204862029A012182F820108DF80F00B9
:10117000FFE79DF80F0004B080BD000080B594B07B
:10118000139000201290119010900F900E901398D1
:10119000006846F20041C4F20001884253D1FFE7E3
:1011A00040F2F800C2F200000168013101600068FD
:1011B000012812D1FFE7FFE700200D9043F6400021
:1011C000C4F20200016841F000710160006800F0A3
:1011D00000700D900D98FFE7FFE7FFE700200C90EF
:1011E00043F63000C4F20200016841F008010160DA
:1011F000006800F008000C900C98FFE703200E90A8
:1012000002210F9100210791109111900920129055
:1012100040F60040C4F202000EA900F0D5FC079A87
:10122000142005900521069100F088FF059800F034
:101230007BFF0699079A1520089000F07FFF089819
:1012400000F072FF6FE01398006846F60001C4F2E8
:101250000001884266D1FFE7FFE700200B9043F6CC
:101260004000C4F20200016841F080610160006842
:1012700000F080600B900B98FFE740F2F800C2F29C
:1012800000000168013101600068012812D1FFE708
:10129000FFE700200A9043F64000C4F20200016814
:1012A00041F000710160006800F000700A900A9837
:1012B000FFE7FFE7FFE70020099043F63000C4F2A4
:1012C0000200016841F002010160006800F00200C4
:1012D00009900998FFE74FF440500E9002200F90BC
:1012E000002003901090032011900920129040F2EA
:1012F0000040C4F202000EA900F066FC039A4020F0
:1013000001900521029100F019FF019800F00CFFF7
:101310000299039A4120049000F010FF049800F015
:1013200003FFFFE7FFE714B080BD000081B000902D
:1013300001B0704780B592B01190119840F6B0415D
:10134000C2F20001884242D1FFE740F6B040C2F24B
:10135000000040F2B263C2F2000300210AAAFFF7C4
:1013600019FB18B1FFE7FFF711FAFFE700208DF82E
:101370002700FFE79DF8270040F2B061C2F20001AC
:101380000978884222DAFFE79DF8271040F2606072
:10139000C2F2000050F8210088B1FFE79DF8271045
:1013A00040F26060C2F2000050F8210001684B6812
:1013B00040F2B261C2F200010AAA9847FFE7FFE7D4
:1013C0009DF8270001308DF82700D3E74AE01198F7
:1013D00040F6D841C2F20001884242D1FFE740F610
:1013E000D840C2F2000040F2BA63C2F2000300210A
:1013F00002AAFFF7CFFA18B1FFE7FFF7C7F9FFE737
:1014000000208DF80700FFE79DF8070040F2B1616A
:10141000C2F200010978884222DAFFE79DF807103E
:1014200040F28860C2F2000050F8210088B1FFE766
:101430009DF8071040F28860C2F2000050F82100C9
:1014400001684B6840F2BA61C2F2000102AA9847F3
:10145000FFE7FFE79DF8070001308DF80700D3E7AD
:10146000FFE7FFE712B080BD81B0009001B0704788
:1014700081B0009001B0704781B0009001B070471A
:1014800080B584B00290029890F8200001282FD1F6
:10149000FFE70299022081F820000298016808689D
:1014A00020F00100086000F06BFD0190FFE702985A
:1014B00000684068C007A8B1FFE700F061FD01992E
:1014C000401A0B280DD3FFE70299486A40F4003018
:1014D00048620299052081F8200001208DF80F0054
:1014E0000FE0E4E70299002048628DF80F0008E061
:1014F0000299486A40F40020486201208DF80F00EC
:10150000FFE79DF80F0004B080BD000081B000909F
:1015100001B0704781B0009001B0704781B0009079
:1015200001B0704781B0009001B0704781B0009069
:1015300001B0704781B0009001B0704781B0009059
:1015400001B0704780B584B002900298806D019020
:1015500000F016FD0090029890F8350002280DD09A
:10156000FFE7029980204865FFE70299002081F893
:101570003400FFE701208DF80F0055E00298016864
:10158000086820F01600086002980168486920F099
:10159000800048610298006C20B9FFE70298806CD7
:1015A00038B1FFE702980168086820F00800086079
:1015B000FFE702980168086820F001000860FFE773
:1015C000029800680068C007C8B1FFE700F0D8FCC7
:1015D0000099401A062811D3FFE702992020486598
:1015E0000299032081F83500FFE70299002081F875
:1015F0003400FFE703208DF80F0015E0E0E70298C4
:10160000C16D3F208840019988600299012081F8CE
:101610003500FFE70299002081F83400FFE7FFE77B
:1016200000208DF80F00FFE79DF80F0004B080BD8B
:1016300082B00090009890F83500022807D0FFE7AC
:1016400000998020486501208DF807000EE0009980
:10165000052081F8350000980168086820F0010035
:101660000860FFE700208DF80700FFE79DF80700FE
:1016700002B0704780B586B005900020039040F21C
:101680002800C2F20000006848F2B511C1F64E31E0
:10169000A0FB0110800A02900598806D01900198CE
:1016A0000068049004980599C96DC8400007002897
:1016B0001AD5FFE70598006800684007002812D592
:1016C000FFE705980168086820F0040008600598A5
:1016D000C16D08208840019988600599486D40F0E7
:1016E00001004865FFE7FFE704980599C96DC84008
:1016F000C007A0B1FFE70598006840690006002810
:101700000CD5FFE70598C16D0120884001998860DC
:101710000599486D40F002004865FFE7FFE704982F
:101720000599C96DC8404007002814D5FFE7059802
:1017300000680068800700280CD5FFE70598C16D98
:1017400004208840019988600599486D40F00400A4
:101750004865FFE7FFE704980599C96DC840C006D2
:10176000002847D5FFE705980068006800070028B3
:101770003FD5FFE70598C16D10208840019988602A
:10178000059800680068400300281AD5FFE705980F
:10179000006800680003002809D4FFE70598006C82
:1017A00020B1FFE70598016C8847FFE708E005983E
:1017B000806C20B1FFE70598816C8847FFE7FFE761
:1017C00016E0059800680068C005002807D4FFE708
:1017D00005980168086820F008000860FFE7059890
:1017E000006C20B1FFE70598016C8847FFE7FFE731
:1017F000FFE7FFE704980599C96DC84080060028F7
:1018000040F18D80FFE7059800680068C006002859
:1018100040F18480FFE70598C16D20208840019940
:101820008860059890F83500052834D1FFE70598C1
:101830000168086820F0160008600598016848698A
:1018400020F0800048610598006C20B9FFE70598FA
:10185000806C38B1FFE705980168086820F008003F
:101860000860FFE70598C16D3F20884001998860B6
:101870000599012081F83500FFE70599002081F8DE
:101880003400FFE70598006D20B1FFE70598016D72
:101890008847FFE77BE00598006800684003002860
:1018A0001AD5FFE70598006800680003002809D4EE
:1018B000FFE70598406C20B1FFE70598416C884729
:1018C000FFE708E00598C06B20B1FFE70598C16B02
:1018D0008847FFE7FFE720E0059800680068C0053B
:1018E000002811D4FFE705980168086820F010006F
:1018F00008600599012081F83500FFE7059900206F
:1019000081F83400FFE7FFE70598C06B20B1FFE7DF
:101910000598C16B8847FFE7FFE7FFE7FFE70598FA
:10192000406DA0B3FFE70598406DC00730B3FFE7F7
:101930000599052081F8350005980168086820F0B0
:1019400001000860FFE70398013003900299884284
:1019500001D9FFE707E0FFE7059800680068C007C6
:101960000028F0D1FFE70599012081F83500FFE755
:101970000599002081F83400FFE7FFE70598C06C67
:1019800020B1FFE70598C16C8847FFE7FFE706B085
:1019900080BD000080B586B004900020039000F068
:1019A000EFFA0290049820B9FFE701208DF81700A4
:1019B000A3E00498406A08B1FFE7FFE7049902201A
:1019C00081F83500FFE70499002081F83400FFE733
:1019D00004980168086820F001000860FFE7049897
:1019E00000680068C00790B1FFE700F0C9FA0299EB
:1019F000401A06280AD3FFE7049920204865049975
:101A0000032081F835008DF8170076E0E7E70498A9
:101A1000006800680390039848F23F01CFF210017C
:101A200008400390049900914868D1F808C0CB6839
:101A30000A6940EA0C00184310434A6910438A6956
:101A40001043CA691043096A01430398084303908D
:101A50000498406A042808D1FFE70499C86A096B12
:101A60000143039808430390FFE70398049909682A
:101A700008600498006840690390039820F007000C
:101A800003900498416A0398084303900498406ABD
:101A900004281AD1FFE70498816A03980843039049
:101AA0000498C06A80B1FFE70498FEF7CDFD50B1FD
:101AB000FFE70499402048650499012081F835002A
:101AC0008DF8170019E0FFE7FFE70398049909680C
:101AD00048610498FEF78CFD01900498C16D3F2089
:101AE000884001998860049900204865049A012182
:101AF00082F835108DF81700FFE79DF8170006B043
:101B000080BD000080B588B00690059104920393D3
:101B100000208DF80B000698806D0190FFE7069875
:101B200090F83400012804D1FFE702208DF81F004F
:101B300045E00699012081F83400FFE7FFE70698A9
:101B400090F8350001282BD1FFE70699022081F893
:101B5000350006990020486506980599049A039B6C
:101B6000FEF7EAFD0698C16D3F2088400199886024
:101B700006980168086840F0160008600698006C36
:101B800038B1FFE706980168086840F0080008606F
:101B9000FFE706980168086840F00100086009E066
:101BA000FFE70699002081F83400FFE702208DF856
:101BB0000B00FFE79DF80B008DF81F00FFE79DF875
:101BC0001F0008B080BD00008EB00D900C91002069
:101BD0000A90099008900B90FFE70B980F2800F2ED
:101BE000CC81FFE70B99012088400A900C9800688F
:101BF0000A990840099009980A99884240F0B881EA
:101C0000FFE70C98406800F00300012807D0FFE7C9
:101C10000C98406800F0030002282FD1FFE70D98D0
:101C2000806808900B984100032000FA01F10898A1
:101C3000884308900C98C0680B99490000FA01F19C
:101C400008980843089008980D9988600D98406896
:101C500008900B99012000FA01F108988843089038
:101C60000C984068C0F300100B9900FA01F1089835
:101C70000843089008980D994860FFE70C98406861
:101C800000F00300032818D0FFE70D98C068089003
:101C90000B984100032000FA01F10898884308904E
:101CA0000C9880680B99490000FA01F108980843E4
:101CB000089008980D99C860FFE70C98406800F0FC
:101CC0000300022826D1FFE70D980B996FF003025D
:101CD00002EA51010844006A08900B9800F00700DE
:101CE00081000F2000FA01F10898884308900C98B1
:101CF00000690B9901F00701890000FA01F10898C9
:101D00000843089008980D990B9B02EA530211446E
:101D10000862FFE70D98006808900B9841000320C7
:101D200000FA01F10898884308900C98406800F088
:101D300003000B99490000FA01F108980843089044
:101D400008980D9908600C9880798007002800F0A9
:101D50000E81FFE7FFE70020079043F64400C4F23E
:101D60000200016841F480410160006800F4804095
:101D700007900798FFE70B9820F0030043F608014F
:101D8000C4F20101405808900B9800F00300810054
:101D90000F2000FA01F10898884308900D9800215F
:101DA000C4F20201884203D1FFE7002006905EE002
:101DB0000D9840F20041C4F20201884203D1FFE7CE
:101DC0000120059050E00D9840F60001C4F2020198
:101DD000884203D1FFE70220049042E00D9840F6CC
:101DE0000041C4F20201884203D1FFE703200390BF
:101DF00034E00D9841F20001C4F20201884203D19F
:101E0000FFE70420029026E00D9841F20041C4F261
:101E10000201884203D1FFE70520019018E00D98E8
:101E200041F60001C4F20201884203D1FFE7062017
:101E300000900AE00D9941F60042C4F20202082027
:101E4000914208BF07200090FFE700980190FFE74C
:101E500001980290FFE702980390FFE7039804902F
:101E6000FFE704980590FFE705980690FFE70698BE
:101E7000C0B20B9901F00301890000FA01F1089842
:101E80000843089008980B9921F0030143F60802D3
:101E9000C4F20102885043F60840C4F20100006811
:101EA000089009990898884308900C988079C00692
:101EB000002805D5FFE70999089808430890FFE72F
:101EC000089843F60841C4F20101086043F60C404B
:101ED000C4F20100006808900999089888430890A6
:101EE0000C9880798006002805D5FFE709990898A5
:101EF00008430890FFE7089843F60C41C4F201013B
:101F0000086043F60440C4F2010000680890099993
:101F10000898884308900C9880798007002805D598
:101F2000FFE70999089808430890FFE7089843F6E7
:101F30000441C4F20101086043F60040C4F201000C
:101F40000068089009990898884308900C9880794F
:101F5000C00728B1FFE70999089808430890FFE7F0
:101F6000089843F60041C4F201010860FFE7FFE76B
:101F7000FFE70B9801300B902FE60EB07047000082
:101F800045F2C820C2F200000068704740F25400D9
:101F9000C2F20000027845F2C821C2F200010868CE
:101FA000104408607047000080B543F60041C4F259
:101FB0000201086840F400700860086840F480601E
:101FC0000860086840F480700860032000F0D0F8D2
:101FD0000F2000F005F800F07BF8002080BD000025
:101FE00080B58CB00B90002004900390FFE7002098
:101FF000009043F64000C4F20200016841F0100175
:102000000160006800F0100000900098FFE706A84B
:1020100002A900F0E7F909980490049820B9FFE7B5
:1020200000F010FA059004E000F00CFA4000059072
:10203000FFE705984DF68361C4F21B31A0FB010157
:102040004FF0FF3000EB9140039040F66050C2F239
:10205000000041F20001C4F20001016040F2E731EA
:10206000C16003994160002101618160816100F0DC
:10207000E9FD8DF807009DF8070028BBFFE740F653
:102080006050C2F2000000F02FFE8DF807009DF8AE
:102090000700C0B9FFE7362000F046F80B980F287C
:1020A0000CD8FFE70B993620002200F047F80B9878
:1020B00040F25801C2F20001086003E001208DF8EF
:1020C0000700FFE7FFE7FFE79DF807000CB080BDC2
:1020D00080B582B0FFE70020019043F64400C4F2CF
:1020E0000200016841F480410160006800F4804012
:1020F00001900198FFE7FFE70020009043F64000C1
:10210000C4F20200016841F080510160006800F0F3
:10211000805000900098FFE76FF001000F2100222F
:1021200000F00CF802B080BD80B582B08DF80700D9
:102130009DF9070004F04EFF02B080BD80B586B067
:102140008DF81700049103920020029004F05AFFCA
:1021500002909DF91700019002980499039A01F0EA
:10216000CBFE0146019804F055FF06B080BD00008B
:1021700080B582B00190019804F090FF02B080BD5C
:1021800080B584B002900191029820B9FFE7012048
:102190008DF80F0021E1019843F60041C4F20201DD
:1021A000096801F00701884212D9FFE7019943F657
:1021B0000040C4F202000170006800F007000199BD
:1021C000884204D0FFE701208DF80F0005E1FFE70A
:1021D00002980078800700282AD5FFE70298007847
:1021E0004007002809D5FFE743F60801C4F20201C1
:1021F000086840F4E0500860FFE7029800780007A4
:10220000002809D5FFE743F60801C4F20201086877
:1022100040F460400860FFE743F60801C4F20201A1
:10222000086820F0F000029A926810430860FFE707
:1022300002980078C00700286ED0FFE70298406837
:10224000012811D1FFE743F60000C4F20200006844
:1022500000F400310020B0EB514F04D1FFE7012022
:102260008DF80F00B9E02CE002984068022805D0F4
:10227000FFE702984068032811D1FFE743F600000A
:10228000C4F20200006800F000710020B0EB516F52
:1022900004D1FFE701208DF80F009EE010E043F627
:1022A0000000C4F20200006800F002010020B0EB60
:1022B000510F04D1FFE701208DF80F008DE0FFE7FB
:1022C000FFE743F60801C4F20201086820F00300AA
:1022D000029A526810430860FFF752FE0090FFE731
:1022E00043F60800C4F20200006800F00C000299F6
:1022F0004968B0EB810F0ED0FFE7FFF741FE009970
:10230000401A41F28931884204D3FFE703208DF857
:102310000F0062E0E4E7FFE7019843F60041C4F2F2
:102320000201096801F00701884212D2FFE7019912
:1023300043F60040C4F202000170006800F007009C
:102340000199884204D0FFE701208DF80F0044E096
:10235000FFE702980078400700280CD5FFE743F616
:102360000801C4F20201086820F4E050029AD26821
:1023700010430860FFE702980078000700280DD599
:10238000FFE743F60801C4F20201086820F4604048
:10239000029A126940EAC2000860FFE700F076F88E
:1023A00043F60801C4F202010968C9B20A094BF2F6
:1023B0002451C0F60001895CC84040F22801C2F2F5
:1023C0000001086040F25800C2F200000068FFF708
:1023D00007FE00208DF80F00FFE79DF80F0004B006
:1023E00080BD000082B00190009101990F2008602B
:1023F00043F60800C4F20200016801F00301019AEB
:102400005160016801F0F001019A9160016801F4E6
:10241000E051019AD160006800F46040C008019961
:10242000086143F60040C4F20200006800F00700B3
:102430000099086002B0704740F22800C2F2000024
:102440000068704780B5FFF7F7FF43F60801C4F254
:1024500002010968C1F382224BF23451C0F6000137
:10246000895CC84080BD000080B5FFF7E5FF43F6FA
:102470000801C4F20201096889B24A0B4BF23451D7
:10248000C0F60001895CC84080BD000080B586B000
:102490000020059004900390029043F60800C4F2D7
:1024A0000200006800F00C000146019140B1FFE716
:1024B000019804280AD0FFE7019808280CD04FE0C3
:1024C00042F20040C0F2F40002904FE041F20020DE
:1024D000C0F27A00029049E043F60400C4F2020020
:1024E000016801F03F01059100684002002813D502
:1024F000FFE743F60400C4F202000068C0F388104E
:1025000041F20021C0F27A01A0FB0101059A0023EB
:10251000FDF7C2FE049012E043F60400C4F202008C
:102520000068C0F3881042F20041C0F2F401A0FB41
:102530000101059A0023FDF7AFFE0490FFE743F683
:102540000400C4F20200006800F44031022000EBF5
:10255000D130039004980399B0FBF1F0029005E0AC
:1025600042F20040C0F2F4000290FFE7029806B089
:1025700080BD000080B586B00490049820B9FFE7C4
:1025800001208DF8170050E304980078C007002858
:1025900000F0A580FFE743F60800C4F202000068DF
:1025A00000F00C00042813D0FFE743F60800C4F243
:1025B0000200006800F00C0008281ED1FFE743F677
:1025C0000400C4F2020000684002002815D5FFE7AD
:1025D00043F60000C4F20200006800F4003100205D
:1025E000B0EB514F08D0FFE70498406820B9FFE7EF
:1025F00001208DF8170018E370E0FFE704984068A9
:10260000B0F5803F09D1FFE743F60001C4F20201B3
:10261000086840F48030086020E004984068B0F515
:10262000A02F0DD1FFE743F60001C4F202010868B4
:1026300040F480200860086840F4803008600CE0B6
:1026400043F60001C4F20201086820F480300860FB
:10265000086820F480200860FFE7FFE7FFE70498A0
:102660004068E8B1FFE7FFF78BFC0390FFE743F614
:102670000000C4F20200006800F400310020B0EB5A
:10268000514F0CD1FFE7FFF77BFC0399401A6528F7
:1026900004D3FFE703208DF81700C6E2E7E71CE04C
:1026A000FFF76EFC0390FFE743F60000C4F2020060
:1026B000006800F400310020B0EB514F0CD0FFE770
:1026C000FFF75EFC0399401A652804D3FFE7032057
:1026D0008DF81700A9E2E7E7FFE7FFE7FFE70498B7
:1026E00000788007002840F19680FFE743F6080055
:1026F000C4F20200006810F00C0F13D0FFE743F69D
:102700000800C4F20200006800F00C0008282CD178
:10271000FFE743F60400C4F202000068400200280C
:1027200023D4FFE743F60000C4F20200006800F083
:1027300002010020B0EB510F09D0FFE70498C068F8
:10274000012804D0FFE701208DF817006DE243F661
:102750000001C4F20201086820F0F800049A12692E
:1027600040EAC2000860FFE754E00498C06870B314
:10277000FFE70021C4F2472101200860FFF700FCB9
:102780000390FFE743F60000C4F20200006800F087
:1027900002010020B0EB510F0CD1FFE7FFF7F0FB77
:1027A0000399401A032804D3FFE703208DF817008C
:1027B0003BE2E7E743F60001C4F20201086820F0BB
:1027C000F800049A126940EAC200086021E0002182
:1027D000C4F2472100200860FFF7D2FB0390FFE717
:1027E00043F60000C4F20200006800F0020100207D
:1027F000B0EB510F0CD0FFE7FFF7C2FB0399401A73
:10280000032804D3FFE703208DF817000DE2E7E764
:10281000FFE7FFE7FFE704980078000700284BD5A3
:10282000FFE70498406918B3FFE740F68061C4F2FF
:10283000472101200860FFF7A3FB0390FFE743F661
:102840007400C4F20200006800F002010020B0EB46
:10285000510F0CD1FFE7FFF793FB0399401A0328B0
:1028600004D3FFE703208DF81700DEE1E7E722E05D
:1028700040F68061C4F2472100200860FFF780FB2A
:102880000390FFE743F67400C4F20200006800F012
:1028900002010020B0EB510F0CD0FFE7FFF770FBF7
:1028A0000399401A032804D3FFE703208DF817008B
:1028B000BBE1E7E7FFE7FFE704980078400700285F
:1028C00040F1CE80FFE700208DF8070043F640007E
:1028D000C4F202000068C000002815D4FFE7FFE73B
:1028E0000020009043F64000C4F20200016841F06D
:1028F00080510160006800F0805000900098FFE770
:1029000001208DF80700FFE747F20000C4F2000045
:102910000068C005002822D4FFE747F20001C4F296
:102920000001086840F480700860FFF729FB0390FD
:10293000FFE747F20000C4F200000068C00500286D
:102940000CD4FFE7FFF71CFB0399401A032804D3BC
:10295000FFE703208DF8170067E1EAE7FFE7FFE7ED
:1029600004988068012809D1FFE743F67001C4F29A
:102970000201086840F0010008601FE004988068C8
:1029800005280DD1FFE743F67001C4F20201086883
:1029900040F004000860086840F0010008600CE0A6
:1029A00043F67001C4F20201086820F001000860DB
:1029B000086820F004000860FFE7FFE7FFE70498DD
:1029C0008068F8B1FFE7FFF7DBFA0390FFE743F613
:1029D0007000C4F20200006800F002010020B0EBB9
:1029E000510F0ED1FFE7FFF7CBFA0399401A41F2DE
:1029F0008931884204D3FFE703208DF8170014E1E2
:102A0000E5E71EE0FFF7BCFA0390FFE743F670002E
:102A1000C4F20200006800F002010020B0EB510F88
:102A20000ED0FFE7FFF7ACFA0399401A41F2893163
:102A3000884204D3FFE703208DF81700F5E0E5E7AF
:102A4000FFE79DF80700012809D1FFE743F64001A1
:102A5000C4F20201086820F080500860FFE7FFE739
:102A600004988069002800F0DC80FFE743F6080046
:102A7000C4F20200006800F00C00082800F0858015
:102A8000FFE70498806902285CD1FFE76021C4F267
:102A9000472100200860FFF773FA0390FFE743F631
:102AA0000000C4F20200006800F000710020B0EBEA
:102AB000516F0CD0FFE7FFF763FA0399401A032820
:102AC00004D3FFE703208DF81700AEE0E7E7049991
:102AD000C869D1F820C04B6A8A6A40EA0C0040EA13
:102AE0008310D2034FF6FF739A43A2F5803210434E
:102AF000C96A40EA016043F60401C4F202010860B9
:102B00006021C4F2472101200860FFF739FA0390E1
:102B1000FFE743F60000C4F20200006800F0007115
:102B20000020B0EB516F0CD1FFE7FFF729FA0399B2
:102B3000401A032804D3FFE703208DF8170074E040
:102B4000E7E721E06021C4F2472100200860FFF799
:102B500017FA0390FFE743F60000C4F20200006892
:102B600000F000710020B0EB516F0CD0FFE7FFF7D1
:102B700007FA0399401A032804D3FFE703208DF8CE
:102B8000170052E0E7E7FFE74AE004988069012870
:102B900004D1FFE701208DF8170046E043F604005A
:102BA000C4F202000068029004988069012831D0C4
:102BB000FFE7029800F480000499C969884229D18E
:102BC000FFE7029800F03F000499096A884221D18A
:102BD000FFE7029847F6C07108400499496AB0EBD4
:102BE000811F17D1FFE7029800F440300499896AE9
:102BF000C9034FF6FF729143A1F58031884209D194
:102C0000FFE7029800F070600499C96AB0EB016FA9
:102C100004D0FFE701208DF8170006E0FFE7FFE78B
:102C2000FFE700208DF81700FFE79DF8170006B0BA
:102C300080BD000081B0009001B0704781B000906D
:102C400001B0704780B582B00090009820B9FFE7CE
:102C500001208DF807003FE0009890F83D0040B952
:102C6000FFE70099002081F83C00009800F038F858
:102C7000FFE70099022081F83D00009951F8040B0C
:102C800001F016FE0099012081F84600FFE7009947
:102C9000012081F83E00009981F83F00009981F8F9
:102CA0004000009981F84100FFE7FFE7009901200B
:102CB00081F84200009981F84300009981F84400AE
:102CC000009981F84500FFE70099012081F83D0057
:102CD00000208DF80700FFE79DF8070002B080BDD7
:102CE00081B0009001B0704783B00190019890F8D6
:102CF0003D00012804D0FFE701208DF80B006AE0B9
:102D00000199022081F83D0001980168C86840F0EF
:102D10000100C860019800680021C4F201018842E6
:102D20003CD0FFE701980068B0F1804F36D0FFE754
:102D30000198006840F20041C4F2000188422DD0A1
:102D4000FFE70198006840F60001C4F200018842E4
:102D500024D0FFE70198006840F60041C4F200016A
:102D600088421BD0FFE70198006840F20041C4F29E
:102D70000101884212D0FFE70198006844F2000187
:102D8000C4F20101884209D0FFE70198006841F6CA
:102D90000001C4F20001884212D1FFE701980068E7
:102DA000806800F0070000900098062807D0FFE731
:102DB00001980168086840F001000860FFE706E03C
:102DC00001980168086840F001000860FFE70020F2
:102DD0008DF80B00FFE79DF80B0003B07047000073
:102DE00081B0009001B0704780B584B00390039823
:102DF0000068C068029003980068006901909DF81F
:102E000004008007002824D5FFE79DF8080080070C
:102E100000281DD5FFE7039801686FF002000861E4
:102E2000039901200877039800688069800720B122
:102E3000FFE70398FFF7D4FF06E0039800F0E2F8FD
:102E4000039800F0E3F8FFE7039900200877FFE715
:102E5000FFE79DF804004007002825D5FFE79DF80F
:102E60000800400700281ED5FFE7039801686FF0AF
:102E700004000861039902200877039800688069BC
:102E800010F4407F04D0FFE70398FFF7A9FF06E0A6
:102E9000039800F0B7F8039800F0B8F8FFE703993B
:102EA00000200877FFE7FFE79DF8040000070028EF
:102EB00024D5FFE79DF80800000700281DD5FFE78F
:102EC000039801686FF008000861039904200877EF
:102ED00003980068C069800720B1FFE70398FFF7F7
:102EE0007FFF06E0039800F08DF8039800F08EF85D
:102EF000FFE7039900200877FFE7FFE79DF804004C
:102F0000C006002825D5FFE79DF80800C006002868
:102F10001ED5FFE7039801686FF010000861039960
:102F20000820087703980068C06910F4407F04D037
:102F3000FFE70398FFF754FF06E0039800F062F8FC
:102F4000039800F063F8FFE7039900200877FFE794
:102F5000FFE79DF80400C00778B1FFE79DF808007F
:102F6000C00748B1FFE7039801686FF001000861EE
:102F7000039800F04FF8FFE7FFE79DF80400000614
:102F8000002810D5FFE79DF808000006002809D5A5
:102F9000FFE7039801686FF0800008610398FFF76E
:102FA00049FEFFE7FFE79DF804004006002810D522
:102FB000FFE79DF808004006002809D5FFE70398C1
:102FC00001686FF040000861039800F035F8FFE7F2
:102FD000FFE79DF804008006002810D5FFE79DF864
:102FE00008008006002809D5FFE7039801686FF004
:102FF000200008610398FFF721FEFFE7FFE704B018
:1030000080BD000081B0009001B0704781B0009099
:1030100001B0704780B582B001900198006841F21C
:103020000001C4F20001884203D1FFE7FEF7AEFFC2
:10303000FFE702B080BD000081B0009001B0704792
:1030400080B586B004900391ADF80A20049890F8FA
:10305000420020284DD1FFE7039820B1FFE7BDF8DB
:103060000A0020B9FFE701208DF8170045E0049918
:103070000120086304990020486304980399BDF86F
:103080000A2001F0AFFF8DF809009DF8090058BB38
:10309000FFE70498006B012821D1FFE7FFE700203C
:1030A00001900498006800680190049800684068E6
:1030B00001900198FFE7FFE7FFE70498006850E8F8
:1030C000030F40F010000090FFE700990498026899
:1030D00042E803100028F0D1FFE7FFE703E00120FA
:1030E0008DF80900FFE7FFE79DF809008DF817004C
:1030F00003E002208DF81700FFE79DF8170006B0E7
:1031000080BD000080B588B00790ADF81A1000208F
:1031100005900490FFE7049840F22C61C2F2000190
:103120000968884256DAFFE7049940F20C60C2F25F
:10313000000050F82100D0F80C010799884244D1D2
:10314000FFE7079800F058F80798006800680390B8
:1031500007980068406803900398FFE700200290FA
:10316000079800680068029007980068406802901D
:103170000298FFE7BDF81A00049A40F20C61C2F20F
:10318000000151F82210097988420CD1FFE7049917
:1031900040F20C60C2F2000050F8210001684A6859
:1031A00005A99047FFE7049940F20C60C2F20000C5
:1031B000019050F8210002F021FC0198049950F888
:1031C0002100017902F062FCFFE7FFE7049801307B
:1031D0000490A0E7059860B1FFE74EF60451CEF2E7
:1031E00000014FF080500860BFF34F8FBFF36F8F27
:1031F000FFE708B080BD000080B584B003900020D8
:103200000290039800684069C0B2C0090290039818
:1032100090F84100212823D1FFE7029800B3FFE78F
:10322000FFE7FFE70398006850E8050F20F08000F3
:103230000190FFE701990398026842E80510002811
:10324000F0D1FFE7FFE70398806B28B1FFE7039811
:10325000806BFEF777F9FFE7039801F053FDFFE776
:10326000039800684069C0F380100290039890F8BA
:103270004200222823D1FFE7029800B3FFE7FFE7CF
:10328000FFE70398006850E8050F20F04000009029
:10329000FFE700990398026842E805100028F0D182
:1032A000FFE7FFE70398C06B28B1FFE70398C06B07
:1032B000FEF748F9FFE7039801F0C6FCFFE700209E
:1032C00004B080BD80B582B001900198426C4BF291
:1032D0008461C0F60001002000F024FF019840F254
:1032E0000C61C2F200010A68D2F808111279FFF7E6
:1032F000A7FE02B080BD000080B592B01190119879
:1033000000680068109011980068C0680F901198CC
:10331000006840690E9000200D900C90109800F00D
:103320000F000D900D9888B9FFE79DF840008006CA
:1033300000280AD5FFE79DF83C008006002804D548
:10334000FFE7119801F0FAFCEAE1FFE70D98002889
:1033500000F0C280FFE79DF83800C00738B9FFE7EA
:10336000BDF83C0010F4907F00F0B680FFE79DF8B8
:103370004000C00758B1FFE79DF83D00C00730B1DD
:10338000FFE71199486C40F001004864FFE79DF8A1
:103390004000400700280BD5FFE79DF83800C00724
:1033A00030B1FFE71199486C40F002004864FFE734
:1033B0009DF84000800700280BD5FFE79DF83800F6
:1033C000C00730B1FFE71199486C40F00400486431
:1033D000FFE79DF840000007002811D5FFE79DF8A2
:1033E0003C008006002805D4FFE79DF83800C007A0
:1033F00030B1FFE71199486C40F008004864FFE7DE
:103400001198406C002866D0FFE79DF840008006C8
:1034100000280AD5FFE79DF83C008006002804D567
:10342000FFE7119801F08AFCFFE7119800684069F6
:10343000C0F380100C901198406C0007002804D451
:10344000FFE70C9800283ED0FFE7119801F0FCFB45
:10345000119800684069400600282FD5FFE7FFE774
:10346000FFE71198006850E8050F20F040000B902E
:10347000FFE70B991198026842E805100028F0D187
:10348000FFE7FFE71198C06B98B1FFE71198C16B98
:1034900044F68520C0F6000008651198C06BFEF761
:1034A000C7F828B1FFE71198C06B016D8847FFE7A7
:1034B00003E01198FFF706FFFFE703E01198FFF71D
:1034C00001FFFFE706E01198FFF7FCFE11990020CD
:1034D0004864FFE7FFE723E11198006B012840F003
:1034E000FF80FFE79DF84000C006002840F1F8800B
:1034F000FFE79DF83C00C006002840F1F180FFE79F
:10350000FFE700200A901198006800680A9011985F
:10351000006840680A900A98FFE7119800684069BF
:103520004006002840F18280FFE71198C06B0068D8
:103530004068ADF82600BDF82600002875D0FFE7EA
:10354000BDF826001199898D88426EDAFFE7BDF833
:1035500026001199C8851198C06BC069B0F5807FAD
:1035600058D0FFE7FFE7FFE71198006850E8030F26
:1035700020F480700890FFE708991198026842E8EB
:1035800003100028F0D1FFE7FFE7FFE7FFE71198FE
:10359000006850E8050F20F001000790FFE7079949
:1035A0001198026842E805100028F0D1FFE7FFE714
:1035B000FFE7FFE71198006850E8050F20F0400092
:1035C0000690FFE706991198026842E80510002866
:1035D000F0D1FFE7FFE71199202081F8420011990F
:1035E00000200863FFE7FFE71198006850E8030F29
:1035F00020F010000590FFE705991198026842E855
:1036000003100028F0D1FFE7FFE71198C06BFDF72A
:1036100099FFFFE71199022048631198818DC28DAF
:10362000891A89B2FFF76EFDFFE779E01199888D5D
:10363000C98D401AADF812001198C08D00284ED0E7
:10364000FFE7BDF81200002849D0FFE7FFE7FFE7DA
:103650001198006850E8030F20F490700390FFE782
:1036600003991198026842E803100028F0D1FFE79F
:10367000FFE7FFE7FFE71198006850E8050F20F02B
:1036800001000290FFE702991198026842E80510D4
:103690000028F0D1FFE7FFE71199202081F84200D0
:1036A000119900200863FFE7FFE71198006850E8D0
:1036B000030F20F010000190FFE7019911980268B4
:1036C00042E803100028F0D1FFE7FFE7119902203C
:1036D00048631198BDF81210FFF714FDFFE71FE0D3
:1036E0009DF84000000600280AD5FFE79DF83C0041
:1036F0000006002804D5FFE7119801F02BFD0FE02C
:103700009DF84000400600280AD5FFE79DF83C00E0
:103710004006002804D5FFE7119801F0DFFAFFE723
:1037200012B080BD80B582B00090009820B9FFE74C
:1037300001208DF8070040E00098806908B1FFE79C
:1037400000E0FFE7009890F8410040B9FFE70099DA
:10375000002081F84000009800F034F8FFE700995D
:10376000242081F8410000980168C86820F40050C6
:10377000C860009801F098FB00980168086920F47F
:103780009040086100980168486920F02A0048616B
:1037900000980168C86840F40050C8600099002093
:1037A0004864009A202182F84110009A82F8421061
:1037B000009948638DF80700FFE79DF8070002B005
:1037C00080BD000080B59CB01B9000201A9019901D
:1037D0001890179016901B98006841F20001C4F2EF
:1037E0000101884269D1FFE7FFE70020159043F609
:1037F0004400C4F20200016841F010010160006859
:1038000000F0100015901598FFE7FFE700201490D6
:1038100043F63000C4F20200016841F0010101608A
:10382000006800F0010014901498FFE74FF4C060A6
:1038300016900220179000200B90189003201990EA
:1038400007201A900020C4F2020016A9FEF7BCF966
:103850000B9940F60050C2F200000C9046F2404234
:10386000C4F2020202604FF0006242608160C160F7
:103870004FF48062026141618161C1614FF4803225
:1038800002624162FEF786F818B1FFE7FCF77EFF9F
:10389000FFE7FFE71B9840F60051C2F20001C16349
:1038A0001B988863FFE725200A9005210022FEF778
:1038B00045FC0A98FEF738FC03E11B98006844F2C7
:1038C0000041C4F2000188423ED1FFE7FFE700203B
:1038D000139043F64000C4F20200016841F4003145
:1038E0000160006800F4003013901398FFE7FFE7D1
:1038F0000020129043F63000C4F20200016841F04B
:1039000008010160006800F0080012901298FFE7BB
:103910006020169002201790002008901890032035
:10392000199007201A9040F60040C4F2020016A930
:10393000FEF74AF9089A262009900521FEF7FEFBBA
:103940000998FEF7F1FBBBE01B98006844F6000104
:10395000C4F20001884269D1FFE7FFE7002011901F
:1039600043F64000C4F20200016841F48021016086
:10397000006800F4802011901198FFE7FFE7002015
:10398000109043F63000C4F20200016841F00201D9
:103990000160006800F0020010901098FFE7FFE758
:1039A00000200F9043F63000C4F20200016841F09D
:1039B00008010160006800F008000F900F98FFE711
:1039C0004FF4984016900220029017900020069025
:1039D0001890032003901990072004901A9040F249
:1039E0000040C4F2020016A90591FEF7EDF8DDF8DB
:1039F00008C0039A04980599069B4FF4006ECDF811
:103A000058E0CDF85CC0189319921A9040F6004027
:103A1000C4F20200FEF7D8F8069A27200790052185
:103A2000FEF78CFB0798FEF77FFB48E01B980068C9
:103A300041F20041C4F2010188423FD1FFE7FFE7B4
:103A400000200E9043F64400C4F20200016841F0E9
:103A500020010160006800F020000E900E98FFE742
:103A6000FFE700200D9043F63000C4F20200016829
:103A700041F040010160006800F040000D900D9899
:103A8000FFE74FF48440169002201790002000902A
:103A900018900320199008201A9041F60000C4F2F3
:103AA000020016A9FEF790F8009A47200190052120
:103AB000FEF744FB0198FEF737FBFFE7FFE7FFE760
:103AC000FFE71CB080BD000080B584B0029001917A
:103AD000ADF80220029890F84200202817D1FFE7A5
:103AE000019820B1FFE7BDF8020020B9FFE70120EF
:103AF0008DF80F000FE002990020086302980199E9
:103B0000BDF8022001F0F4FA8DF80F0003E0022066
:103B10008DF80F00FFE79DF80F0004B080BD000096
:103B200080B584B0039000200190FFE7019840F237
:103B30002C61C2F200010968884230DAFFE701997E
:103B400040F20C60C2F2000050F82100D0F80C01E5
:103B5000039988421ED1FFE7019940F20C60C2F23E
:103B60000000009050F8211089798DF80B10019910
:103B700050F821009DF80B100268126890470098D9
:103B8000019950F82110D1F80C0106310122FFF7FC
:103B90009BFFFFE7FFE7019801300190C6E704B003
:103BA00080BD000081B0009001B0704781B00090EE
:103BB00001B07047FFE7FEE780B582B040F6B04045
:103BC000C2F20000009046F20041C4F20001016020
:103BD00003214160002101918160C1604FF4002206
:103BE00002614FF440124261017641768176C176DE
:103BF00001774177FDF7D2F918B1FFE7FCF7C6FD71
:103C0000FFE702B080BD000080B582B040F6D8402A
:103C1000C2F20000009046F60001C4F2000101600B
:103C200003214160002101918160C1604FF40022B5
:103C300002614FF440124261017641768176C1768D
:103C400001774177FDF7AAF918B1FFE7FCF79EFD70
:103C5000FFE702B080BD000080B582B0FFE7002022
:103C6000019043F63000C4F20200016841F4800183
:103C70000160006800F4800001900198FFE73A209D
:103C8000009005210022FEF759FA0098FEF74CFA41
:103C900002B080BD80B582B04BF20062C0F6000277
:103CA0001020022103F096FB40F63071C2F20001B1
:103CB000086044F2D540C0F600004BF2DC52C0F67A
:103CC00000020021019103F005FC019940F64442F5
:103CD000C2F20002106044F66120C0F600004BF210
:103CE000B852C0F6000203F0F5FB019940F63442E9
:103CF000C2F20002106044F67520C0F600004BF2DC
:103D00001862C0F6000203F0E5FB41F28401C2F242
:103D10000001086002B080BD86B0FFE7002005907A
:103D200043F63000C4F20200016841F00401016072
:103D3000006800F0040005900598FFE7FFE7002009
:103D4000049043F63000C4F20200016841F08001A3
:103D50000160006800F0800004900498FFE7FFE72E
:103D60000020039043F63000C4F20200016841F0E5
:103D700002010160006800F0020003900398FFE771
:103D8000FFE70020029043F63000C4F20200016811
:103D900041F008010160006800F0080002900298FC
:103DA000FFE7FFE70020019043F63000C4F2020075
:103DB000016841F001010160006800F0010001901C
:103DC0000198FFE7FFE70020009043F63000C4F2BF
:103DD0000200016841F040010160006800F040000D
:103DE00000900098FFE706B07047000080B582B0F1
:103DF00040F6A850C2F20000019041F20001C4F266
:103E0000010101604FF4E131416000218160C16036
:103E100001610C2242618161C161FFF783FC18B12D
:103E2000FFE7FCF7B3FCFFE702B080BD80B582B0CE
:103E300040F6F050C2F20000019044F20041C4F29A
:103E4000000101604FF4E131416000218160C160F7
:103E500001610C2242618161C161FFF763FC18B10D
:103E6000FFE7FCF793FCFFE702B080BD80B582B0AE
:103E700040F63860C2F20000019044F60001C4F23E
:103E8000000101604FF4E131416000218160C160B7
:103E900001610C2242614FF440728261C161FFF7FF
:103EA00041FC18B1FFE7FCF771FCFFE702B080BDF1
:103EB00080B582B040F68060C2F20000019041F20D
:103EC0000041C4F2010101604FF4E1214160002191
:103ED0008160C16001610C2242618161C161FFF7B3
:103EE00021FC18B1FFE7FCF751FCFFE702B080BDF1
:103EF000FFE7FEE7FFE7FEE788B00790069105922F
:103F0000079800F0070004900498C0F10700052806
:103F100003D3FFE70420019004E00498C0F10700F8
:103F20000190FFE70198039004980430062803D815
:103F3000FFE70020009003E0049803380090FFE7BB
:103F40000098029006980399012202FA01F10139C2
:103F50000840029B984005999A40013A1140084355
:103F600008B0704740F20401C2F200010020C4F220
:103F7000201008604CF6CD40C3F6CC50486046F2A5
:103F80006660C3F66670886048F20000C4F2D440F0
:103F9000C8600020C4F24820086148F20000C4F262
:103FA0003B5048614FF08D4088614FF08140C861BF
:103FB000704700000000000000000000000000004A
:103FC000EFF30980BFF36F8F154B1A681EF0100FC7
:103FD00008BF20ED108A20E9F04F10602DE909009C
:103FE0004FF0500080F31188BFF34F8FBFF36F8FF6
:103FF00005F00CF84FF0000080F31188BDE80900CF
:1040000019680868B0E8F04F1EF0100F08BFB0EC58
:10401000108A80F30988BFF36F8F704700BF00BF1D
:10402000E011002080B586B0059004910392FFE76F
:1040300040F20410C2F20000019001980078532869
:1040400003D0FFE701F01AF9FFE7FFE7EFF3118074
:104050004FF0200181F31188009005980499039A8C
:1040600000F008F80290009880F31188029806B0DA
:1040700080BD000080B58AB0099008910792089829
:104080000490099800EB400140F20410C2F20000D5
:1040900000EBC1001830039003984069029040B1D2
:1040A000FFE70298012819D0FFE7029802282CD0D8
:1040B00032E0039801F056F9059005980799884277
:1040C00003D2FFE70020069007E0079806900398C8
:1040D0000499079A01F0D0FBFFE720E0039801F074
:1040E00041F9059005980799884203D2FFE70598A2
:1040F000019002E007980190FFE70198069003986D
:104100000499069A01F0B8FB09E003980499079A0C
:1041100001F040FB069002E000200690FFE70698C1
:104120000AB080BD82B080B584B007930692039038
:10413000029106A80090039802996A4600F008F8D8
:104140000190019804B0BDE8804002B070470000C3
:1041500080B5A4B023902291219207A81B90402003
:104160001C9000201D9023991F911E90FFE722981C
:1041700000788DF883002298013022909DF883000A
:1041800008B9FFE777E19DF88300252840F06681B4
:10419000FFE70020189001201A90FFE7229800788E
:1041A0008DF883009DF883002338014604910D2883
:1041B00029D80499DFE801F01F2727272727272779
:1041C00017270727270F189840F00100189022980A
:1041D000013022901AE0189840F0020018902298BE
:1041E0000130229012E0189840F0040018902298B4
:1041F000013022900AE0189840F0080018902298A8
:104200000130229002E000201A90FFE7FFE71A98A1
:104210000028C3D1FFE700201790FFE7229800781D
:104220008DF883009DF88300302805DBFFE79DF8BB
:1042300083003A2801DBFFE710E02298013022904A
:10424000179800EB80019DF8830000EB41003038A7
:104250001790FFE701200028E0D1FFE70020199028
:10426000229800788DF883009DF883002E2825D1B0
:10427000FFE7229801302290FFE7229800788DF81E
:1042800083009DF88300302805DBFFE79DF883005D
:104290003A2801DBFFE710E02298013022901998BC
:1042A00000EB80019DF8830000EB4100303819904D
:1042B000FFE701200028E0D1FFE7FFE72298007820
:1042C0008DF88300FFE79DF883006C2805D0FFE799
:1042D0009DF88300682808D1FFE7229801302290DA
:1042E000229800788DF8830000E004E0FFE70120C9
:1042F0000028E8D1FFE79DF88300014603912528B7
:1043000000F0A280FFE70398582850D0FFE70398F9
:10431000632815D0FFE70398642820D0FFE70398AF
:10432000702800F08080FFE70398732853D0FFE7E0
:104330000398752827D0FFE70398782837D088E0BE
:10434000219A1068011D116000681A901A988DF862
:104350001B009DF81B101BA801F0E0F97AE0219AE0
:104360001068011D116000681A901A99199B17981E
:10437000DDF860C06A46C2F804C010601BA80A22BB
:1043800001F010F866E0219A1068011D11600068C4
:104390001A901A99199B1798DDF860C06A46C2F8FE
:1043A00004C010601BA80A2201F0E2F852E0219A32
:1043B0001068011D116000681A901A99199B1798CE
:1043C000DDF860C06A46C2F804C010601BA8102265
:1043D00001F0CEF83EE0219A1068011D11600068DE
:1043E0000590059830B9FFE74BF27270C0F60000F7
:1043F0000590FFE7FFE7059800788DF883000598A2
:10440000013005909DF8830008B9FFE70AE09DF8A8
:1044100083101BA801F082F9FFE71E98B0F1FF3F5F
:10442000E9DCFFE716E0219A1068011D11600068C1
:104430001A901A99684600224260082303601BA85C
:10444000102201F095F805E01BA8252101F066F97E
:1044500000E0FFE722980130229005E09DF88310EC
:104460001BA801F05BF9FFE7FFE71E98B0F1FF3FE3
:104470003FF77DAEFFE71E9801280EDBFFE71D9892
:1044800030B1FFE723981D9A07A9FFF7CBFDFFE79F
:104490001D991E9808441E90FFE71E9824B080BD09
:1044A000074B19680868B0E8F04F80F30988BFF33C
:1044B0006F8F4FF0000080F31188704700BF00BF7E
:1044C000E011002080B56FF00400002102F0C4FD6F
:1044D00080BD000080B582B0019002F0BBFEFFE716
:1044E00000F004F8052002F00DFFF9E780B590B068
:1044F00040F2C000C2F20000007948BBFFE745F679
:10450000A420C2F2000040F22401C2F20001098896
:1045100000EE101AB8EEC03A90ED500A90ED512A14
:1045200090ED521A20EE030A62EE030A40F22C00CC
:10453000C2F20000008802EE100AB8EEC22A21EE94
:10454000021A40F63840C2F2000002F0DDF9ADE098
:1045500040F2C000C2F20000007901283DD1FFE71F
:1045600045F6A420C2F2000040F22401C2F200018C
:10457000098800EE101AB8EEC02A90ED503A90ED7E
:10458000511A90ED520A23EE023A8DED0C3A21EECB
:10459000021A8DED0D1A40F22C00C2F200000088C4
:1045A00001EE100AB8EEC11A20EE010A8DED0E0AD6
:1045B00040F6D420C2F2000002F078F89DED0C0A1B
:1045C000DDED0D0A9DED0E1AD0ED031A40F63840D0
:1045D000C2F2000002F028FA67E040F2C000C2F226
:1045E0000000007902285FD1FFE741F26400C2F2C7
:1045F00000000690DFED6B0AB0EE600A01F0F0F902
:10460000069840F6D421C2F20001079101F07AF930
:10461000069890ED040A41F28800C2F20000DFED36
:10462000620ACDED0B0A01F01FFB06988DED0F0A13
:104630009DED0F0A8DED050A90ED050A02F0A2FC32
:104640000698B0EE401A9DED050A20EE010A80EDB5
:10465000060A9DED0F0A8DED080A90ED050A02F09D
:104660009BFC06990798B0EE401A9DED080A20EED3
:10467000010A81ED070A91ED060A8DED090A91ED17
:10468000070A8DED0A0A02F011F89DED090ADDED29
:104690000A0A9DED0B1AD0ED031A40F63840C2F21B
:1046A000000002F0C1F9FFE7FFE7FFE7FDF768FC54
:1046B00002464BF21A71C0F6000100200490FFF789
:1046C00031FD40F64840C2F2000000909FED370AED
:1046D00001F082FF0098B0F9560001EE100AF8EEE2
:1046E000C10A40F63470C2F2000001F0BDFA009831
:1046F000BDEEC00A10EE101A01F0F0FE40F6384090
:10470000C2F20000029090ED010A40F6C860C2F2C9
:104710000000019001F060FF0198B0F9560001EE31
:10472000100AF8EEC10A40F69870C2F2000001F0DB
:104730009BFA0198BDEEC00A10EE101A01F0CEFEF1
:10474000029890ED020A41F25860C2F20000039014
:1047500001F042FF0398B0F9560001EE100AF8EE9E
:10476000C10A40F6FC70C2F2000001F07DFA039825
:10477000BDEEC00A10EE101A01F0B0FEFDF700FC0D
:10478000024604984BF2FB61C0F60001FFF7CAFC39
:1047900041F26000C2F200000068012104F0B4FCA4
:1047A00010B080BD00007A4400000000000070429C
:1047B00080B54EF21000CEF20000006805F0D4FB88
:1047C000012803D0FFE704F0C9FEFFE780BD000029
:1047D00080B594B008A83021FBF723FE0020079095
:1047E0000690059004900390FFE70020029043F6A6
:1047F0004000C4F20200016841F08051016000688D
:1048000000F0805002900298FFE7FFE7002001903F
:1048100047F20000C4F20000016841F480410160E9
:10482000006800F4804001900198FFE701200890A3
:104830004FF48030099002210E914FF480000F90C8
:1048400004201090A82211921291139008A8FDF74D
:1048500091FE18B1FFE7FBF799FFFFE70F200390E8
:1048600002200490002005904FF4A05006904FF4D1
:104870008050079003A80521FDF782FC18B1FFE7DF
:10488000FBF784FFFFE714B080BD00004EF68851AF
:10489000CEF20001086840F4700008607047000024
:1048A00080B540F66050C2F20000FEF79DFA80BD70
:1048B00083B0029001910298006800900298002154
:1048C000C4F20101884225D0FFE70298B0F1804F81
:1048D00020D0FFE7029840F20041C4F20001884274
:1048E00018D0FFE7029840F60001C4F200018842A8
:1048F00010D0FFE7029840F60041C4F20001884260
:1049000008D0FFE7029840F20041C4F2010188425A
:104910000AD1FFE7009820F07000009001984168EC
:10492000009808430090FFE702980021C4F20101BB
:10493000884255D0FFE70298B0F1804F50D0FFE792
:10494000029840F20041C4F20001884248D0FFE7DB
:10495000029840F60001C4F20001884240D0FFE70F
:10496000029840F60041C4F20001884238D0FFE7C7
:10497000029840F20041C4F20101884230D0FFE7C2
:10498000029844F20001C4F20101884228D0FFE7F6
:10499000029844F20041C4F20101884220D0FFE7AE
:1049A000029844F60001C4F20101884218D0FFE7E2
:1049B000029841F60001C4F20001884210D0FFE7DE
:1049C000029841F60041C4F20001884208D0FFE796
:1049D000029842F20001C4F2000188420AD1FFE7C6
:1049E000009820F4407000900198C1680098084336
:1049F0000090FFE7009820F0800001994969084382
:104A00000090009802990860019880680299C86235
:104A1000019800680299886202980021C4F201019D
:104A2000884208D0FFE7029840F20041C4F2010139
:104A3000884205D1FFE70198006902990863FFE702
:104A400002990120486102980069C00730B1FFE770
:104A50000299086920F001000861FFE703B0704780
:104A600080B582B00190FFE705F0E8FD022002F07A
:104A700049FCF9E780B582B00190FFE702F0D8FD6C
:104A8000FCE7000080B582B001900198806B009037
:104A900000990020C8850099C8840098FEF712FC90
:104AA00002B080BD80B584B00390002002900398CE
:104AB000806B0190019800684069C0B2C009029003
:104AC000019890F8410021280AD1FFE7029838B1F7
:104AD000FFE701990020C884019800F013F9FFE76F
:104AE000019800684069C0F380100290019890F826
:104AF000420022280AD1FFE7029838B1FFE7019966
:104B00000020C885019800F09FF8FFE70199486CE4
:104B100040F0100048640198FEF7D4FB04B080BD5B
:104B200080B586B005900598806B04900598006864
:104B30000068C00500285AD4FFE704990020C88502
:104B4000FFE7FFE70498006850E8030F20F4807047
:104B50000390FFE703990498026842E803100028D5
:104B6000F0D1FFE7FFE7FFE7FFE70498006850E8B0
:104B7000050F20F001000290FFE7029904980268F7
:104B800042E805100028F0D1FFE7FFE7FFE7FFE765
:104B90000498006850E8050F20F040000190FFE7FE
:104BA00001990498026842E805100028F0D1FFE757
:104BB000FFE70499202081F842000498006B012847
:104BC00014D1FFE7FFE7FFE70498006850E8030F00
:104BD00020F010000090FFE700990498026842E876
:104BE00003100028F0D1FFE7FFE7FFE7FFE7049994
:104BF000002048630498006B012805D1FFE7049862
:104C0000818DFEF77FFA03E00498FEF789FFFFE746
:104C100006B080BD80B582B001900198806B009095
:104C20000099012048630098006B012806D1FFE736
:104C30000098818D4908FEF765FA03E00098FEF7B9
:104C4000B1FFFFE702B080BD84B00390FFE7FFE74C
:104C50000398006850E8030F20F490700290FFE77B
:104C600002990398026842E803100028F0D1FFE798
:104C7000FFE7FFE7FFE70398006850E8050F20F023
:104C800001000190FFE701990398026842E80510CE
:104C90000028F0D1FFE7FFE70398006B012814D14B
:104CA000FFE7FFE7FFE70398006850E8030F20F0F5
:104CB00010000090FFE700990398026842E8031093
:104CC0000028F0D1FFE7FFE7FFE70399202081F8F4
:104CD000420003990020086304B0704780B582B099
:104CE000019001980168C86820F04000C8600199EF
:104CF000202081F841000198FEF758FF002002B003
:104D000080BD000082B00190FFE7FFE701980068D6
:104D100050E8030F20F0C0000090FFE700990198D1
:104D2000026842E803100028F0D1FFE7FFE701998D
:104D3000202081F8410002B07047000080B586B0A5
:104D40000490049890F84200222840F0A480FFE7E5
:104D500004988068B0F5805F15D1FFE7049800697A
:104D600088B9FFE7002003900498806A02900498B5
:104D7000006840686FF35F20029908800499886A90
:104D80000230886225E00498806A03900020029037
:104D900004988068B0F5805F08D0FFE704988068C9
:104DA00050B9FFE70498006930B9FFE7049800683C
:104DB00040680399087007E004980068406800F0B4
:104DC0007F0003990870FFE70499886A01308862C0
:104DD000FFE70499C88D0138C8850004002856D122
:104DE000FFE704980168C86820F02000C8600498B4
:104DF0000168C86820F48070C86004980168486938
:104E000020F0010048610499202081F842000499B3
:104E1000002048630498006B012830D1FFE7049913
:104E200000200863FFE7FFE70498006850E8030FDD
:104E300020F010000190FFE701990498026842E811
:104E400003100028F0D1FFE7FFE70498006800682E
:104E5000C00600280ED5FFE7FFE700200090049869
:104E6000006800680090049800684068009000980E
:104E7000FFE7FFE70498818DFEF744F903E004980B
:104E8000FEF74EFEFFE700208DF8170007E0002038
:104E90008DF8170003E002208DF81700FFE79DF85A
:104EA000170006B080BD000080B586B0059005985B
:104EB0000068006920F44050059A1168D2681043D8
:104EC0000861059988680B694A69C96918431043E4
:104ED0000843049005980068C06849F20C61884353
:104EE0000499084305990968C860059800684069F5
:104EF00020F44070059A1168926910434861059842
:104F0000006841F20001C4F20101884209D0FFE7C4
:104F10000598006841F20041C4F20101884204D1C1
:104F2000FFE7FDF7A1FA039003E0FDF78BFA03908A
:104F3000FFE70598C069B0F5004F29D1FFE7039856
:104F40001921A0FB0101059A1368029353685A00C6
:104F5000DB0FFBF7A1F90299864648F21F53C5F211
:104F6000EB13AEFB0320420910014FF0640C02FB6F
:104F70001CEC322202EBCC02A2FB0332F82303EA40
:104F8000521300EB4300C2F342121044886026E043
:104F900003981921A0FB0101059A13680193536836
:104FA0009A009B0FFBF778F90199844648F21F524B
:104FB000C5F2EB12ACFB02304309642003FB10CCBA
:104FC000322000EB0C10A0FB0202F02000EA52108D
:104FD00000EB0310C2F3431210448860FFE706B0F1
:104FE00080BD000080B588B007900691ADF816200E
:104FF000069807998862BDF8160007998885079971
:1050000000204864079A222182F842100799CA6B4F
:1050100044F62131C0F60001D1630799CA6B44F60A
:105020001541C0F6000111640799CA6B44F6A52129
:10503000C0F60001D1640799C96B086506A8049001
:1050400007980168C06B0431049A1268BDF81630E5
:10505000FCF758FDFFE70020039007980068006800
:10506000039007980068406803900398FFE707984B
:105070000069A0B1FFE7FFE7FFE70798006850E885
:10508000030F40F480700290FFE7029907980268CE
:1050900042E803100028F0D1FFE7FFE7FFE7FFE752
:1050A000FFE70798006850E8050F40F00100019005
:1050B000FFE701990798026842E805100028F0D13F
:1050C000FFE7FFE7FFE7FFE70798006850E8050FF5
:1050D00040F040000090FFE700990798026842E81E
:1050E00005100028F0D1FFE7FFE7002008B080BDE1
:1050F00083B002900191ADF8022001980299886274
:10510000BDF8020002998885BDF802000299C885A1
:105110000299002048640299222081F842000298F6
:10512000006938B1FFE702980168C86840F48070F0
:10513000C860FFE702980168486940F001004861D3
:1051400002980168C86840F02000C860002003B0E1
:105150007047000083B00190019890F84100212829
:105160003AD1FFE701988068B0F5805F13D1FFE77F
:105170000198006978B9FFE70198006A00900098EB
:1051800000886FF35F200199096848600199086AF7
:105190000230086208E0019A106A411C116200782E
:1051A000019909684860FFE70199C88C0138C884F3
:1051B000000468B9FFE701980168C86820F0800022
:1051C000C86001980168C86840F04000C860FFE707
:1051D00000208DF80B0003E002208DF80B00FFE7A4
:1051E0009DF80B0003B0704780B582B040F6A85020
:1051F000C2F2000000680068C00600281CD5FFE766
:10520000FFE70020019040F6A850C2F200000168BC
:10521000096801910068406801900198FFE740F635
:10522000A850C2F20000818DC26B12685268891AC0
:1052300089B2FDF767FFFFE740F6A850C2F2000011
:10524000FEF75AF802B080BD80B540F6F050C2F2C9
:105250000000FEF751F880BD80B540F63860C2F21C
:105260000000FEF749F880BD80B540F68060C2F2CC
:105270000000FEF741F880BDFFE7FEE780B582B091
:1052800040F20410C2F2000001900198A821FBF73F
:10529000C8F80199032008610199486101984BF20F
:1052A0006971C0F600018161019A40F2D260C2F2D8
:1052B0000000D061019A4FF480601062019A0020D2
:1052C0009062019A5062019AD062019A1166019A25
:1052D00040F2C261C2F200015166019A102191664A
:1052E000019908670199C86601994867BFF35F8F04
:1052F0000090FFE700980F280ED8FFE7009A4BF2C6
:105300004450C0F60000801AC07B01998854FFE722
:10531000009801300090EDE7BFF35F8F02B080BDD1
:1053200080B501F0F5FE80BD80B501F00DFF01F004
:1053300027FF01F041FF01F05BFF01F061FF01F089
:105340006DFF01F079FF80BD80B501F0C5FE80BD25
:1053500080B501F0E9FE01F003FF01F01DFF01F04F
:1053600037FF80BD84B003900398006902900398D2
:10537000C068019002980199884209D8FFE7039814
:1053800081680198C043084402990844009005E0F0
:1053900002990198C04308440090FFE7009804B0C8
:1053A0007047000010B58CB0DDF83CC0DDF838C0A7
:1053B0000B900A91099208930A98B0F1FF3F04DC20
:1053C000FFE70A984042059002E00A980590FFE73F
:1053D0000598069001200790FFE7069809998842F2
:1053E00009DBFFE70698099990FBF1F00690079812
:1053F00001300790F1E708980799884203D9FFE741
:1054000008980790FFE70E9870B1FFE70A98002808
:1054100006D4FFE79DF83C004007002804D5FFE7CD
:105420000E9801380E90FFE79DF83C008007002899
:1054300003D5FFE7089858B3FFE79DF83C00C00785
:1054400030BBFFE70E9810B3FFE7FFE70E9900208F
:10545000049041B1FFE707990E9A0020914238BFAE
:1054600001200490FFE70498C00778B1FFE70E9889
:1054700001380E900B98202100F050F90B98C0686D
:10548000B0F1FF3F01DCFFE700E0DFE7FFE7FFE708
:105490000B98C068002869D4FFE70A98B0F1FF3F75
:1054A00008DCFFE70A9840420A900B982D2100F093
:1054B00035F90CE09DF83C004007002805D5FFE7D2
:1054C0000B982B2100F02AF900E0FFE7FFE70B988B
:1054D000C068002849D4FFE79DF83C0080070028F9
:1054E0002ED5FFE79DF83C00C00748BBFFE70898B2
:1054F00030BBFFE70E9810B3FFE7FFE70E990020DF
:10550000039041B1FFE707990E9A0020914238BFFE
:1055100001200390FFE70398C00778B1FFE70E98DA
:1055200001380E900B98302100F0F8F80B98C06805
:10553000B0F1FF3F01DCFFE700E0DFE7FFE7FFE757
:105540000B98C06800280FD4FFE70B980A99099AB6
:10555000089BDDF838C00F9CEE46CEF80440CEF82C
:1055600000C000F005F8FFE7FFE7FFE70CB010BD53
:1055700080B58CB0DDF83CC0DDF838C00B900A91E6
:10558000099208930A980590012006900490FFE77D
:1055900005980999884209D3FFE705980999B0FB56
:1055A000F1F00590049801300490F1E7089804990F
:1055B000884203D9FFE708980490FFE79DF83C0074
:1055C000C007C0BBFFE70E98A0B3FFE79DF83C0003
:1055D0008007002807D5FFE7089820B9FFE73020AB
:1055E0008DF80F0003E020208DF80F00FFE7FFE7A4
:1055F0000E990020029041B1FFE704990E9A002015
:10560000914238BF01200290FFE70298C00780B1A5
:10561000FFE70E9801380E900B989DF80F1000F0E0
:105620007DF80B98C068B0F1FF3F01DCFFE700E0B8
:10563000DEE7FFE7FFE70B98C06800286CD4FFE7C0
:10564000FFE70898022804D3FFE70898013808907C
:105650000BE00A980699B0FBF1F0079007980999BA
:10566000884201D2FFE705E0FFE709990698484321
:105670000690E6E7FFE70A980699B0FBF1F007907D
:10568000079806990A9A00FB11200A900B98079A2E
:105690004BF25551C0F60001895C00F03FF80B98C1
:1056A000C068B0F1FF3F01DCFFE709E00999069807
:1056B000B0FBF1F00690FFE706980028DBD1FFE78A
:1056C0009DF83C00C00730B3FFE70E9810B3FFE72A
:1056D000FFE70E990020019041B1FFE704990E9A6F
:1056E0000020914238BF01200190FFE70198C007D8
:1056F00078B1FFE70E9801380E900B98202100F04A
:105700000DF80B98C068B0F1FF3F01DCFFE700E047
:10571000DFE7FFE7FFE7FFE70CB080BD80B584B0AF
:1057200003908DF80B100398806801900198013068
:105730000399496888420FD8FFE79DF80B00039949
:105740000968019A88540198013003998860039987
:10575000C8680130C860FFE70398416880688842E4
:1057600015D1FFE70398016882680069FEF75AFCCB
:1057700003998968884205D0FFE703994FF0FF300D
:10578000C86003E0039900208860FFE7FFE704B0EA
:1057900080BD000080B58AB0099008910792002072
:1057A00005900998C0680390FFE709980069049084
:1057B00004980399884206D9FFE704990398C043E7
:1057C0000844069008E0099881680398049A801AB2
:1057D000C04308440690FFE7069809998968039A30
:1057E000891A884203D2FFE70698019005E00998DC
:1057F00080680399401A0190FFE701980690069887
:105800000799884203D2FFE70698009002E00798C4
:105810000090FFE7009806900998406803990844B3
:10582000029002980899069AFAF7AEFD0699059833
:105830000844059006990898084408900699079826
:10584000401A079006990398084403900398099911
:105850008968884203D1FFE700200390FFE7BFF388
:105860005F8F03980999C860FFE7079800289CD1CB
:10587000FFE705980AB080BD80B588B00790069113
:1058800005920798C0680390079880680399401AAA
:10589000029002980599884212D9FFE7079840685C
:1058A00003990844019001980699059AFAF76CFD4E
:1058B000BFF35F8F0398059908440799C8601FE0FC
:1058C0000298049007984068039908440190019851
:1058D0000699049AFAF758FD05980299401A04901F
:1058E00007984068019001980699029A1144049A19
:1058F000FAF74AFDBFF35F8F04980799C860FFE786
:1059000008B080BD80B586B00590049105980190DF
:1059100090ED000A049991ED482A9FED2F1A31EE7F
:10592000421A30EE010A80ED020A90ED010A049954
:1059300091ED492A9FED291A31EE421A30EE010A03
:1059400080ED030A90ED020A90ED031A21EE011A90
:1059500020EE000A30EE010A01F032FB019880EDE2
:10596000040A00210391029190ED040AB5EE400A69
:10597000F1EE10FA12DDFFE7019890ED020A90EDCA
:10598000041A80EE010A8DED030A90ED030A90EDF2
:10599000041A80EE010A8DED020AFFE7019890EDEE
:1059A000020A90ED041A80EE010A01F0FFFA019854
:1059B00080ED050A90ED030AB5EE400AF1EE10FA0B
:1059C00008DAFFE7019890ED050AB1EE400A80ED94
:1059D000050AFFE706B080BD00006143000048C231
:1059E00083B002908DED010ACDED000A0299019875
:1059F00008600098486003B07047000080B582B02E
:105A0000019001980090007940B9FFE74BF2B06136
:105A1000C0F600010020FEF785FBFFE70098027941
:105A20004179114441710179407908447F2808DCAB
:105A3000FFE70099D1F808010A791044C1F808017C
:105A400015E00099D1F808018631884206D2FFE7B7
:105A5000009901F18600C1F8080104E00099881D51
:105A6000C1F80801FFE7009900204871FFE702B084
:105A700080BD000082B001900091032002B0704709
:105A800082B001908DF8031002B0704780B584B0E9
:105A900003908DF80B10039801909DF80B10017185
:105AA00001218DF80A10007940B9FFE74BF29861A7
:105AB000C0F600010020FEF735FBFFE70198D0F8A3
:105AC0000C110A68D16841F01001D160D0F80811BA
:105AD000D0F80C019DF80B20FDF7B2FA01460198B1
